S010000070726F6A656374342E73726563E9
S11300003AC0000055C0000053C0000051C00000B9
S11300104FC000004DC00000AFC5000049C0000043
S113002047C0000045C0000043C0000041C00000BC
S11300303FC000003DC000003BC0000039C00000CC
S113004037C0000035C0000033C0000031C00000DC
S11300502FC000004E4F573A2D2D2D2D4156473AB3
S11300602D2D2D2D004D41583A2D2D2D2D4D494E20
S11300703A2D2D2D2D0011241FBECFE5D8E0DEBF73
S1130080CDBF10E0A0E6B0E0E2E4F7E102C00590E5
S11300900D92AC39B107D9F721E0ACE9B0E001C069
S11300A01D92AC39B207E1F70E9474080C949F0BBF
S11300B0A7CFA4E0B0E0EFE5F0E00C94DE087C010B
S11300C06A01FC018081823008F44AC1FB019081FD
S11300D0923008F442C1843079F4943009F040C17C
S11300E0F7019181FB018181981709F439C1A6E6D2
S11300F0EA2EA0E0FA2E34C1943009F42EC19230D5
S113010091F4823009F02CC188E0F701DA01019002
S11301100D928A95E1F7FB018181F7019181892391
S1130120FA0181831CC1823009F417C1F70182816D
S11301309381FB01A281B381F7010481158126819A
S11301403781FB0184809580A680B780FC01EA1B7F
S1130150FB0BAF01F7FF04C0442755274E1B5F0B71
S1130160403251050CF074C01E161F06B4F524016C
S11301703501042E04C076946794579447940A94E6
S1130180D2F749825A826B827C82412C512C3201F3
S1130190439404C0440C551C661C771C4A95D2F742
S11301A041E0441A510861087108482059206A2026
S11301B07B20812C912C5401839445284628472880
S11301C019F4812C912C540149805A806B807C80D5
S11301D084289528A628B72846C0EF2B09F443C0E5
S11301E0840F951F28013901042E04C07694679466
S11301F0579447940A94D2F749825A826B827C823C
S1130200412C512C3201439404C0440C551C661CEF
S1130210771C4A95D2F741E0441A510861087108E5
S1130220402251226222732201E010E020E030E0FB
S113023045284628472819F400E010E09801498031
S11302405A806B807C8004291529262937290BC004
S1130250A817B90724F4812C912C540104C0CD01B2
S113026000E010E09801F7014181FB01518145173D
S113027009F446C0442349F024013501401A510AC7
S1130280620A730A9301820104C0081919092A0930
S11302903B0937FD05C0F6011182938382830CC0AC
S11302A041E0F60141839383828330952095109534
S11302B001951F4F2F4F3F4F0483158326833783A8
S11302C00EC0880F991FAA1FBB1FF6018483958354
S11302D0A683B78382819381019793838283F601F6
S11302E084819581A681B781AC01BD01415051093A
S11302F0610971094F3F5F4F6F4F7F4310F30CC08B
S1130300F601418393838283080D191D2A1D3B1D29
S1130310048315832683378383E0F6018083448135
S113032055816681778177FF1AC0DB01CA0181702C
S11303309927AA27BB277695679557954795842BC8
S1130340952BA62BB72B84839583A683B7838281B1
S1130350938101969383828302C07B0101C076015D
S1130360C7012496E0E146C7A0E2B0E0E9EBF1E082
S113037033C76D8F7E8F8F8F98A3298F3A8F4B8FC2
S11303805C8FBE016F5E7F4FCE014D96FDD2BE01E4
S1130390675F7F4FCE014996F7D2AE014F5F5F4F43
S11303A0BE01675F7F4FCE01419683DE23D2A096C4
S11303B0E2E02EC7A0E2B0E0EFEDF1E00DC76D8FF3
S11303C07E8F8F8F98A3298F3A8F4B8F5C8FBE01BE
S11303D06F5E7F4FCE014D96D7D2BE01675F7F4FD0
S11303E0CE014996D1D28A8591E089278A87AE01C8
S11303F04F5F5F4FBE01675F7F4FCE01419659DE6D
S1130400F9D1A096E2E004C7A0E2B0E0E9E0F2E0AE
S1130410D5C66D8F7E8F8F8F98A3298F3A8F4B8F80
S11304205C8FBE016F5E7F4FCE014D96ADD2BE0193
S1130430675F7F4FCE014996A7D29989923008F41D
S113044012C08985823008F41AC0943021F48230B5
S113045009F4B4C008C0843021F4923009F4AEC069
S11304600EC0923051F481E02A899A85291301C083
S113047080E08A8BCE014196A3C0823051F481E0A2
S11304802A899A85291301C080E08A87CE010996BA
S113049097C08D889E88AF88B88C0D851E852F8562
S11304A03889E0E2F0E080E090E0DC01C12CD12C5E
S11304B0760140E050E0BA0180FE18C0400F511FA1
S11304C0621F731F8C0D9D1DAE1DBF1D412C512C31
S11304D032014394401751076207730718F0412C07
S11304E0512C3201840D951DA61DB71DCC0CDD1CAD
S11304F0EE1CFF1C37FF02C06894C0F8000F111FE8
S1130500221F331FB694A794979487943197A1F62A
S11305102B893C89EB85FC852E0F3F1F2E5F3F4FB7
S11305203C832B8321E0EA893A85E31301C020E070
S11305302A83EB81FC810CC080FF05C0769567950A
S1130540579547957068B695A79597958795319671
S1130550B7FDF2CF9F010CC0880F991FAA1FBB1FC4
S113056077FD8160440F551F661F771F21503109A5
S11305700097A105E0E4BE0778F32B833C838C014C
S11305809D010F77112722273327003411052105F8
S1130590310559F487FD09C0452B462B472B29F01B
S11305A0805C9F4FAF4FBF4F80788D839E83AF8316
S11305B0B88783E08983CE01019602C086E690E085
S11305C019D1A096E0E116C6A8E0B0E0E9EEF2E0A9
S11305D001C623E029838B019C01002737FD039585
S11305E0112722273327402F0A83611571058105BE
S11305F0910519F482E0898334C02EE130E03C8314
S11306002B83442371F061157105810520E892075D
S113061061F1002711279801061B170B280B390BD2
S113062002C08B019C01C901B801ADD50197181610
S113063019062CF00D831E832F83388712C0082ED1
S113064004C0000F111F221F331F0A94D2F70D8319
S11306501E832F8338872EE130E0281B390B3C831F
S11306602B83CE010196C6D004C060E070E080E028
S11306709FEC2896E4E0CAC5ACE0B0E0E1E4F3E026
S1130680A9C569877A878B879C87BE016F5F7F4F77
S1130690CE01099679D18981823091F1823080F13D
S11306A0843041F48A81882331F100E010E020E0B5
S11306B030E829C02B813C8137FD22C02F31310520
S11306C08CF78EE190E0821B930B0D811E812F81AC
S11306D0388504C036952795179507958A95D2F7DE
S11306E08A81882381F030952095109501951F4FBC
S11306F02F4F3F4F08C00FEF1FEF2FEF3FE703C00F
S113070000E010E09801B801C9012C96E4E07EC530
S1130710A8E0B0E0EDE8F3E059C58B019C011A8232
S1130720611571058105910519F482E089835CC026
S113073083E089834EE150E05C834B83C901B801B7
S113074022D5019797FF39C0EE27FF27E81BF90B45
S113075041E050E060E070E00E2E04C0440F551FED
S1130760661F771F0A94D2F7415051096109710934
S11307704023512362237323C12CD12C7601C394CB
S1130780452B462B472B19F4C12CD12C760104C0E0
S11307903695279517950795EA95D2F70C291D29C3
S11307A02E293F290D831E832F8338872EE130E0C5
S11307B0281B390B3C832B8317C0009729F40D8326
S11307C01E832F83388710C0082E04C0000F111F0A
S11307D0221F331F0A94D2F70D831E832F83388779
S11307E0481B590B5C834B83CE01019603D028969A
S11307F0E8E008C50F931F93CF93DF93DC011496B1
S11308004D915D916D917C9117971196EC91119793
S11308108C91823020F460618FEF90E0A6C0843028
S113082009F49EC0823009F495C041155105610553
S1130830710509F492C012962D913C9113972238B8
S11308408FEF38070CF058C0C2E8DFEFC21BD30BA0
S1130850CA31D1056CF58A019B010C2E04C0369572
S11308602795179507950A94D2F781E090E0A0E0C8
S1130870B0E00C2E04C0880F991FAA1FBB1F0A9456
S1130880D2F70197A109B10984239523A623B7239D
S113089041E050E060E070E0892B8A2B8B2B19F447
S11308A040E050E0BA01402B512B622B732B03C064
S11308B040E050E0BA01DB01CA018F779927AA27EB
S11308C0BB2780349105A105B10539F447FF09C060
S11308D0405C5F4F6F4F7F4F04C0415C5F4F6F4F71
S11308E07F4F81E090E041155105610520E47207D6
S11308F048F580E090E026C0203831058CF5DB0116
S1130900CA018F779927AA27BB2780349105A105AF
S1130910B10539F447FF09C0405C5F4F6F4F7F4F0B
S113092004C0415C5F4F6F4F7F4F77FD04C0C90126
S113093081589F4F07C07695679557954795C9018C
S113094080589F4F97E076956795579547959A9568
S1130950D1F70BC080E090E005C080E090E005C0D6
S11309608FEF90E040E050E0BA01982F9695E0FBBD
S113097097F9362F80FB37F9642F752F832FDF917A
S1130980CF911F910F910895CF92DF92EF92DC01E6
S1130990FB01CC901196DC90119712968C911297D2
S11309A03FE7E32EE8226E2DA60170E0982F991FF1
S11309B09927991F13962C91822F880F892B90E0E9
S11309C027FB222720F92183009729F5411551059A
S11309D06105710511F482E027C082E89FEF9383DB
S11309E0828327E0440F551F661F771F2A95D1F78E
S11309F083E0808309C0440F551F661F771F8281DF
S1130A00938101979383828341155105610580E4A5
S1130A10780788F320C08F3F910579F4411551057B
S1130A206105710519F484E0808319C0E4FE03C0F4
S1130A3081E0808310C010820EC08F579109938388
S1130A40828383E0808387E0440F551F661F771FEE
S1130A508A95D1F770644483558366837783EF90D6
S1130A60DF90CF90089523E023BF3EEF07C032BF4D
S1130A7028B7216028BF08B600FEFDCF0197B8F75C
S1130A8013BE0895662311F0C19A01C0C198C2989B
S1130A9082BB8FEF81BBC39A000000000000C398A3
S1130AA00895C198C29A11BA90B3C39A0000000085
S1130AB0000011BA90B3C39899239CF3E3CFB99A79
S1130AC0BA9ABB9A80E190E0CEDF60E080E3DADF9F
S1130AD085E090E0C8DF60E080E3D4DF81E090E06F
S1130AE0C2DF60E08CE3DDDF60E08CE0DADF60E051
S1130AF086E0D7DF60E081E0D4CF60E081E0D1CF51
S1130B00CF93C62F98E2899FC00D112460E082E044
S1130B10C8DFCC2329F060E084E1C3DFC150D9F7FA
S1130B20CF91089561E0BDCFCF93DF93EC0121967F
S1130B30FC018491882339F061E0B3DFFE01219642
S1130B4084918111F9CFDF91CF910895D6DF84E5A7
S1130B5090E0EADF60E081E0D3DF85E690E0E4CF77
S1130B6089B7806289BF1FBC8CE18EBD89E09DE39B
S1130B7097BD86BD789408951F920F920FB60F9279
S1130B8011248F9381E08093AB008F910F900FBE5F
S1130B900F901F901895CF93DF93EB014091620063
S1130BA0509163004817590759F164B321E030E0CC
S1130BB0F90102C0EE0FFF1F4A95E2F7AF0140951D
S1130BC0462344BB65B3A9010090620002C0440FF0
S1130BD0551F0A94E2F74095462345BB44B3082EBB
S1130BE002C0220F331F0A94E2F7342F322B34BB96
S1130BF035B32095232325BB909363008093620033
S1130C0080916000909161008C179D07A1F164B3FD
S1130C10AC014C5F5F4F81E090E09C0102C0220F69
S1130C20331F4A95E2F72095262324BB45B3209130
S1130C306000309161002C5F3F4FBC0102C0660F21
S1130C40771F2A95E2F79B012095242325BB44B303
S1130C509E012C5F3F4F02C0880F991F2A95E2F72F
S1130C60982F9095942394BB95B3892B85BBD093EF
S1130C706100C093600082E090E0F5DE83B390E011
S1130C802496FC010C2E02C0F595E7950A94E2F730
S1130C9021E030E0E0FF02C020E030E0822F932F1B
S1130CA0DF91CF910895EF92FF920F931F93CF930B
S1130CB0DF9300E010E0E12CF12C16C0BE01C80166
S1130CC06ADF892B41F0000F111F000F111FC00FA5
S1130CD0D11F21960DC02196C430D10579F70F5F3D
S1130CE01F4F0430110511F0E701E8CFC0E0D0E058
S1130CF08C2F9D2FDF91CF911F910F91FF90EF903B
S1130D000895823039F08C3041F0813039F5809388
S1130D10A80008951092A80008951092A8001092B7
S1130D20A7001092A6001092A5001092A40081E0E2
S1130D3094E090936500809364001092A300109255
S1130D40A1001092A00010929C0010929D0010929D
S1130D509E0010929F001092A200F8CE08953E9A31
S1130D600895379A0895349A369A0895349BFECF9D
S1130D7084B195B19093A7008093A6000895F1DF04
S1130D80F2DFF4CF2091A6003091A7008091A40057
S1130D909091A5008217930720F43093A500209327
S1130DA0A40080916400909165002817390720F40D
S1130DB030936500209364008091A200883718F076
S1130DC01092A20003C08F5F8093A2008091A300C1
S1130DD08837F0F0E091A200F0E0EE0FFF1FE45539
S1130DE0FF4F4081518180919C0090919D00A09182
S1130DF09E00B0919F00841B950BA109B1098093BB
S1130E009C0090939D00A0939E00B0939F0003C00C
S1130E108F5F8093A300E091A200F0E0EE0FFF1F2C
S1130E20E455FF4F3183208380919C0090919D0075
S1130E30A0919E00B0919F00BC01CD01620F731F71
S1130E40811D911D60939C0070939D0080939E0072
S1130E5090939F002091A30030E040E050E071D1D6
S1130E603093A1002093A00008952F923F924F92B7
S1130E705F926F927F928F929F92AF92BF92CF9226
S1130E80DF92EF92FF920F931F93CF93DF93CDB72F
S1130E90DEB7A8970FB6F894DEBF0FBECDBF609142
S1130EA0A6007091A70080E090E032DC20E030E002
S1130EB040E85AE3A9DA20E030E040EA50E4A4DA5A
S1130EC0662E772E882E992E6091A4007091A5002D
S1130ED080E090E01DDC20E030E040E85AE394DA62
S1130EE020E030E040EA50E48FDAE62EF72E082FB7
S1130EF0192F609164007091650080E090E008DC37
S1130F0020E030E040E85AE37FDA20E030E040EAD5
S1130F1050E47ADAA62EB72EC82ED92E6091A000FE
S1130F207091A10080E090E0F3DB20E030E040E845
S1130F305AE36ADA20E030E040EA50E465DA262E2B
S1130F40372E482E592E662D772D882D992D94DB1A
S1130F507AA369A36E2D7F2D802F912F8DDB7CA327
S1130F606BA36A2D7B2D8C2D9D2D86DB7EA36DA31B
S1130F70622D732D842D952D7FDB78A76FA3882791
S1130F8077FD8095982F20DB9B01AC01622D732D9A
S1130F90842D952D0FDA20E030E048EC52E434DA69
S1130FA06BDB7F936F9338A53F938FA18F93E9A158
S1130FB0FAA1BF01882777FD8095982F05DB9B0157
S1130FC0AC01662D772D882D992DF4D920E030E0E1
S1130FD048EC52E419DA50DB7F936F93FAA1FF9344
S1130FE029A12F938EE690E09F938F93CE010196D3
S1130FF09F938F9318D1EDA1FEA1BF01882777FDA0
S11310008095982FE1DA9B01AC016A2D7B2D8C2D04
S11310109D2DD0D920E030E048EC52E4F5D92CDB0A
S11310207F936F93FEA1FF932DA12F93EBA1FCA1BE
S1131030BF01882777FD8095982FC6DA9B01AC0104
S11310406E2D7F2D802F912FB5D920E030E048EC14
S113105052E4DAD911DB7F936F93FCA1FF932BA1A8
S11310602F9385E890E09F938F93CE0141969F93B1
S11310708F93D9D042DD89810FB6F894DEBF0FBEBD
S1131080CDBF882349F08E010E5F1F4F4BDDF80161
S113109081918F018111FACF60E081E031DD89898E
S11310A0882349F08E010E5E1F4F3CDDF8018191CB
S11310B08F018111FACFA8960FB6F894DEBF0FBE48
S11310C0CDBFDF91CF911F910F91FF90EF90DF90F3
S11310D0CF90BF90AF909F908F907F906F905F90D4
S11310E04F903F902F9008958FE087BB11BAE7DCB3
S11310F014BA15BA1092AB0033DD31DE8091A8002A
S1131100882319F03CDE3EDEB0DECDDD8093AA00FC
S11311109091A900891307C0C6DD2091AA0030E090
S11311208217930759F78091AA00EBDD8091AA00FA
S11311308093A9008091AB008823E1F31092AB0067
S1131140DDCFA1E21A2EAA1BBB1BFD010DC0AA1FF5
S1131150BB1FEE1FFF1FA217B307E407F50720F01C
S1131160A21BB30BE40BF50B661F771F881F991F97
S11311701A9469F760957095809590959B01AC01E0
S1131180BD01CF01089506D084FF0895CB0102D09C
S1131190805F0895AA27992329F4A85F982B11F456
S11311A080E10895903118F4AD5F9295A395990F5D
S11311B0E8F78A2F992708952F923F924F925F92D2
S11311C06F927F928F929F92AF92BF92CF92DF9253
S11311D0EF92FF920F931F93CF93DF93CDB7DEB7B8
S11311E0CA1BDB0B0FB6F894DEBF0FBECDBF09944C
S11311F02A88398848885F846E847D848C849B84A3
S1131200AA84B984C884DF80EE80FD800C811B81B0
S1131210AA81B981CE0FD11D0FB6F894DEBF0FBEDF
S1131220CDBFED010895AEE0B0E0E8E1F9E0D2CF42
S11312300D891E8986E08C831A8309838FEF9FE7CB
S11312409E838D83CE014996AC016F89788DCE0142
S1131250019608D0EF81F885E00FF11F10822E96D9
S1131260E4E0D4CFACE0B0E0E7E3F9E0A5CF7C0163
S11312706B018A01FC0117821682838181FFB9C147
S113128088248394912C8C0E9D1EF7019381F60182
S113129093FD859193FF81916F01882309F4A5C182
S11312A0853239F493FD859193FF81916F018532E5
S11312B021F4B70190E0B9D1E8CF512C312C20E0D2
S11312C02032A8F48B3261F028F4803251F083325A
S11312D071F40BC08D3239F0803349F4216028C099
S11312E02260246025C0286023C0206121C027FD1E
S11312F027C0382F30533A3078F426FF06C0FAE07E
S11313005F9E300D1124532E13C08AE0389E300D99
S11313101124332E20620CC08E3221F426FD65C1C7
S1131320206406C08C3611F4206802C0883641F46B
S1131330F60193FD859193FF81916F018111C0CFD7
S1131340982F9554933018F09052933028F40C5FF2
S11313501F4FFFE3F9830DC0833631F0833771F0FB
S1131360833509F05AC022C0F801808189830E5F59
S11313701F4F44244394512C540114C03801F2E00B
S11313806F0E711CF801A080B18026FF03C0652D8B
S113139070E002C06FEF7FEFC5012C873BD12C01B9
S11313A083012C856FE7262E222217C03801F2E034
S11313B06F0E711CF801A080B18026FF03C0652D5B
S11313C070E002C06FEF7FEFC5012C8718D12C01AC
S11313D02C8550E8252E222A830123FC1AC005C03F
S11313E0B70180E290E021D13A94832D90E0481631
S11313F05906B0F30EC0F50127FC859127FE8191B3
S11314005F01B70190E011D131103A94F1E04F1A25
S113141051084114510479F7E5C0843611F0893636
S113142039F5F80127FF07C06081718182819381BA
S11314300C5F1F4F08C060817181882777FD8095FC
S1131440982F0E5F1F4F4FE6B42EB22297FF09C0AC
S113145090958095709561957F4F8F4F9F4FF0E8E1
S1131460BF2A2AE030E0A4010CD1A82EA81842C05B
S1131470853731F43FEEB32EB2222AE030E024C0A7
S113148099EFB92EB2228F36B9F020F4883509F0DD
S1131490ACC00DC0803721F0883709F0A6C002C067
S11314A020E1B22AB4FE0BC084E0B82A08C024FFAD
S11314B009C0E6E0BE2A06C028E030E005C020E10D
S11314C030E002C020E132E0F801B7FE07C06081DD
S11314D07181828193810C5F1F4F06C0608171818D
S11314E080E090E00E5F1F4FA401CBD0A82EA81877
S11314F0FFE7BF22B6FE0BC02B2D2E7FA51450F4A0
S1131500B4FE0AC0B2FC08C02B2D2E7E05C07A2C76
S11315102B2D03C07A2C01C0752C24FF0DC0FE01B5
S1131520EA0DF11D8081803311F4297E09C022FF68
S113153006C07394739404C0822F867809F0739460
S113154023FD13C020FF0EC05A2C731458F4530CFF
S11315505718732C07C0B70180E290E02C8765D040
S113156073942C857314B8F304C0731410F43718EF
S113157001C0312C24FF11C0B70180E390E02C8717
S113158054D02C8522FF1CC021FF03C088E590E0C5
S113159002C088E790E0B7010CC0822F867881F002
S11315A021FD02C080E201C08BE227FD8DE2B7017C
S11315B090E03BD005C0B70180E390E036D05A9468
S11315C0A514C8F3AA94F401EA0DF11DB7018081B2
S11315D090E02BD0A110F6CF05C0B70180E290E0D7
S11315E024D03A943110F9CF50CEF70126813781B7
S11315F002C02FEF3FEFC9012C96E2E1F9CDFC01C7
S11316000590615070400110D8F7809590958E0F29
S11316109F1F0895FC016150704001900110D8F79C
S1131620809590958E0F9F1F08950F931F93CF93CE
S1131630DF938C01EB018B8181FD03C00FEF1FEF62
S11316401AC082FF0DC02E813F818C819D81281795
S1131650390764F4E881F9810193F983E88306C0CA
S1131660E885F985802F0995892B41F78E819F8123
S113167001969F838E83C801DF91CF911F910F91B3
S11316800895FA01AA27283051F1203181F1E89414
S11316906F936E7F6E5F7F4F8F4F9F4FAF4FB1E061
S11316A03ED0B4E03CD0670F781F891F9A1FA11D5C
S11316B0680F791F8A1F911DA11D6A0F711D811D5D
S11316C0911DA11D20D009F468943F912AE0269F22
S11316D011243019305D3193DEF6CF010895462F81
S11316E04770405D4193B3E00FD0C9F7F6CF462F62
S11316F04F70405D4A3318F0495D31FD40524193CB
S113170002D0A9F7EACFB4E0A69597958795779587
S11317106795BA95C9F700976105710508959B010E
S1131720AC010A2E06945795479537952795BA9597
S1131730C9F7620F731F841F951FA01D0895F894A5
S1051740FFCFD5
S1131742FFFFFFFF010400000000000000004E4FF5
S1131752573A25642E253032644156473A25642E81
S113176225303264004D41583A25642E25303264C6
S10F17724D494E3A25642E2530326400A7
S9030000FC
