S010000070726F6A656374322E73726563EB
S113000029C0000043C0000041C000003FC0000000
S11300103DC000003BC00000A0C2000037C000008B
S113002035C0000033C0000031C000002FC0000004
S11300302DC000002BC0000029C0000027C0000014
S113004025C0000023C0000021C000001FC0000024
S11300501DC0000011241FBECFE5D8E0DEBFCDBF18
S113006010E0A0E6B0E0E6EFF3E102C005900D92E7
S1130070A83AB107D9F720E0A8EAB0E001C01D9280
S1130080A03BB207E1F720D60C94F909B9CFACE054
S1130090B0E0ECE4F0E07CC669877A878B879C87C4
S11300A0BE016F5F7F4FCE01099679D1898182307D
S11300B091F1823080F1843041F48A81882331F1D6
S11300C000E010E020E030E829C02B813C8137FDBE
S11300D022C02F3131058CF78EE190E0821B930B07
S11300E00D811E812F81388504C03695279517957B
S11300F007958A95D2F78A81882381F030952095D7
S1130100109501951F4F2F4F3F4F08C00FEF1FEF62
S11301102FEF3FE703C000E010E09801B801C901E8
S11301202C96E4E051C6A8E0B0E0E8E9F0E02CC683
S11301308B019C011A82611571058105910519F4E1
S113014082E089835CC083E089834EE150E05C8374
S11301504B83C901B801F5D5019797FF39C0EE2744
S1130160FF27E81BF90B41E050E060E070E00E2E41
S113017004C0440F551F661F771F0A94D2F74150DD
S11301805109610971094023512362237323C12C4E
S1130190D12C7601C394452B462B472B19F4C12C43
S11301A0D12C760104C03695279517950795EA95C5
S11301B0D2F70C291D292E293F290D831E832F8355
S11301C038872EE130E0281B390B3C832B8317C082
S11301D0009729F40D831E832F83388710C0082EBF
S11301E004C0000F111F221F331F0A94D2F70D837E
S11301F01E832F833887481B590B5C834B83CE01A6
S1130200019603D02896E8E0DBC50F931F93CF93A4
S1130210DF93DC0114964D915D916D917C9117975C
S11302201196EC9111978C91823020F460618FEFDC
S113023090E0A6C0843009F49EC0823009F495C0D1
S1130240411551056105710509F492C012962D916D
S11302503C91139722388FEF38070CF058C0C2E84E
S1130260DFEFC21BD30BCA31D1056CF58A019B01A8
S11302700C2E04C036952795179507950A94D2F746
S113028081E090E0A0E0B0E00C2E04C0880F991F3C
S1130290AA1FBB1F0A94D2F70197A109B1098423AD
S11302A09523A623B72341E050E060E070E0892B5A
S11302B08A2B8B2B19F440E050E0BA01402B512BD0
S11302C0622B732B03C040E050E0BA01DB01CA018A
S11302D08F779927AA27BB2780349105A105B105FB
S11302E039F447FF09C0405C5F4F6F4F7F4F04C034
S11302F0415C5F4F6F4F7F4F81E090E041155105A6
S1130300610520E4720748F580E090E026C02038BB
S113031031058CF5DB01CA018F779927AA27BB2702
S113032080349105A105B10539F447FF09C0405C4B
S11303305F4F6F4F7F4F04C0415C5F4F6F4F7F4FE4
S113034077FD04C0C90181589F4F07C07695679512
S113035057954795C90180589F4F97E076956795C3
S1130360579547959A95D1F70BC080E090E005C06A
S113037080E090E005C08FEF90E040E050E0BA01EB
S1130380982F9695E0FB97F9362F80FB37F9642F69
S1130390752F832FDF91CF911F910F910895CF92E5
S11303A0DF92EF92DC01FB01CC901196DC90119767
S11303B012968C9112973FE7E32EE8226E2DA60148
S11303C070E0982F991F9927991F13962C91822FCB
S11303D0880F892B90E027FB222720F9218300979F
S11303E029F5411551056105710511F482E027C015
S11303F082E89FEF9383828327E0440F551F661F93
S1130400771F2A95D1F783E0808309C0440F551FD5
S1130410661F771F8281938101979383828341159D
S11304205105610580E4780788F320C08F3F91056A
S113043079F4411551056105710519F484E080834F
S113044019C0E4FE03C081E0808310C010820EC096
S11304508F5791099383828383E0808387E0440FDD
S1130460551F661F771F8A95D1F77064448355839F
S113047066837783EF90DF90CF900895089523E00B
S113048023BF33E808C032BF28B7216028BFA8952E
S113049008B600FEFDCF0197B0F713BE089566239A
S11304A011F0C19A01C0C198C29882BB8FEF81BB81
S11304B0C39A000000000000C3980895C198C29A2E
S11304C011BA90B3C39A00000000000011BA90B3AF
S11304D0C39899239CF3E3CFB99ABA9ABB9A80E163
S11304E090E0CDDF60E080E3DADF85E090E0C7DF15
S11304F060E080E3D4DF81E090E0C1DF60E08CE382
S1130500DDDF60E08CE0DADF60E086E0D7DF60E02A
S113051081E0D4CF60E081E0D1CFCF93C62F98E2C1
S1130520899FC00D112460E082E0C8DFCC2329F04C
S113053060E084E1C3DFC150D9F7CF91089561E051
S1130540BDCF89B7806289BF1FBC8CE18EBD82E1BB
S11305509AE797BD86BD789408951F920F920FB6BF
S11305600F9211248F939F9381E090E09093AF00BA
S11305708093AE009F918F910F900FBE0F901F90AC
S11305801895CF93DF93EB0140916F005091700069
S11305904817590759F164B321E030E0F90102C06A
S11305A0EE0FFF1F4A95E2F7AF014095462344BB87
S11305B065B3A90100906F0002C0440F551F0A944F
S11305C0E2F74095462345BB44B3082E02C0220FF0
S11305D0331F0A94E2F7342F322B34BB35B3209502
S11305E0232325BB9093700080936F0080916D004E
S11305F090916E008C179D07A1F164B3AC014C5F20
S11306005F4F81E090E09C0102C0220F331F4A95A6
S1130610E2F72095262324BB45B320916D00309149
S11306206E002C5F3F4FBC0102C0660F771F2A95F6
S1130630E2F79B012095242325BB44B39E012C5F44
S11306403F4F02C0880F991F2A95E2F7982F909583
S1130650942394BB95B3892B85BBD0936E00C09330
S11306606D0082E090E00BDF83B390E02496FC0100
S11306700C2E02C0F595E7950A94E2F721E030E0EC
S1130680E0FF02C020E030E0822F932FDF91CF9172
S11306900895EF92FF920F931F93CF93DF9300E09F
S11306A010E0E12CF12C16C0BE01C8016ADF892BD1
S11306B041F0000F111F000F111FC00FD11F219611
S11306C00DC02196C430D10579F70F5F1F4F043058
S11306D0110511F0E701E8CFCFEFDFEF8C2F9D2F4D
S11306E0DF91CF911F910F91FF90EF900895CF93D9
S11306F0DF93873009F46EC07CF48330C1F134F4A5
S11307008130F1F0823009F041C127C0853009F40D
S11307104AC00CF055C039C08A3009F406C13CF413
S1130720883009F464C0893009F030C1F2C08C30DB
S113073009F414C10CF406C1803109F027C118C1B1
S11307408091650090916600009709F41FC101979C
S1130750909366008093650019C180916500909123
S11307606600019690936600809365000FC18091A6
S11307706B0090916C008230910508F407C10197D9
S113078090936C0080936B0001C180916B009091F9
S11307906C008C30910508F0F9C0019690936C00C0
S11307A080936B00F3C08091630090916400009784
S11307B009F4ECC001979093640080936300E6C051
S11307C080916300909164000196909364008093FB
S11307D06300DCC08091690090916A00009709F47D
S11307E0D5C0019790936A0080936900CFC040916F
S11307F06700509168009A01329522952F70232743
S11308003F702327AEE3BAE090D220E931E0BC0187
S1130810629FC001639F900D729F900D1124481731
S1130820590739F481E090E09093AB008093AA00DB
S113083027C09A013695279536952795ABE7B4E1FD
S113084074D29695879564E6689F9001699F300DF0
S113085011244217530729F41092AB001092AA00F6
S11308600FC043705527452B39F481E090E09093F5
S1130870AB008093AA0004C01092AB001092AA00AF
S1130880C0916B00D0916C00C230D105A1F480916D
S1130890AA009091AB00892B39F08DE190E0909300
S11308A0AD008093AC001DC08CE190E09093AD004E
S11308B08093AC0016C0BE017695679576956795D2
S11308C07695679580E090E02EDCAAD2E0DB6C0F91
S11308D07D1F61707727625E7F4F7093AD006093D8
S11308E0AC008091690090916A002091AC00309135
S11308F0AD008217930730F4019690936A008093B9
S1130900690044C081E090E090936A00809369009C
S11309103DC080916100909162000097B9F1019708
S1130920909362008093610031C080916100909146
S113093062008C33910550F5019690936200809388
S1130940610024C080916700909168000097F1F0E5
S11309500197909368008093670018C080916700A6
S113096090916800019690936800809367000EC090
S113097081E090E02091A8003091A900232B11F090
S113098080E090E09093A9008093A800DF91CF913C
S113099008950F931F93CF93DF93CDB7DEB7A0973E
S11309A00FB6F894DEBF0FBECDBFB4DD80916800F2
S11309B08F93809167008F9380916A008F938091C9
S11309C069008F9380916C008F9380916B008F935B
S11309D087E790E09F938F93CE0101969F938F9327
S11309E000D289810FB6F894DEBF0FBECDBF882335
S11309F049F08E010E5F1F4FA2DDF80181918F0136
S1130A008111FACF60E081E088DD809165009091EA
S1130A1066008D30910530F0AC014C50510961E70E
S1130A2070E00AC0009721F0AC0164E770E004C0F4
S1130A304CE050E064E770E02091A8003091A900F8
S1130A40232BE9F0209162002F93209161002F93D2
S1130A50209164002F93209163002F939F938F9391
S1130A6086E890E09F938F93CE0141969F938F9356
S1130A70B8D10FB6F894DEBF0FBECDBF1EC07F93B2
S1130A806F93809162008F93809161008F93809126
S1130A9064008F93809163008F935F934F9385E9F4
S1130AA090E09F938F93CE0141969F938F9399D11A
S1130AB00FB6F894DEBF0FBECDBF8989882349F0F5
S1130AC08E010E5E1F4F3BDDF80181918F01811174
S1130AD0FACFA0960FB6F894DEBF0FBECDBFDF915C
S1130AE0CF911F910F9108950F931F93CF93DF938D
S1130AF01092AF001092AE0080916100909162005C
S1130B0001968C33910528F49093620080936100E0
S1130B100DC0109262001092610080916300909168
S1130B206400019690936400809363008091630055
S1130B3090916400CC9768F0109264001092630066
S1130B408091650090916600019690936600809371
S1130B5065008091650090916600489768F0109256
S1130B606600109265008091690090916A00019678
S1130B7090936A0080936900C0916700D0916800E7
S1130B809E01329522952F7023273F702327AEE3D1
S1130B90BAE0CBD020E931E0AC01429FC001439FD1
S1130BA0900D529F900D1124C817D90739F481E094
S1130BB090E09093AB008093AA0028C09E013695E4
S1130BC0279536952795ABE7B4E1AFD096958795F1
S1130BD044E6489F9001499F300D1124C217D30762
S1130BE029F41092AB001092AA0010C0CE018370B9
S1130BF09927892B39F481E090E09093AB0080939E
S1130C00AA0004C01092AB001092AA0000916B00DD
S1130C1010916C0002301105A1F48091AA0090910A
S1130C20AB00892B39F08DE190E09093AD00809377
S1130C30AC001DC08CE190E09093AD008093AC00BB
S1130C4016C0B801769567957695679576956795FC
S1130C5080E090E068DAE4D01ADACB01800F911FCB
S1130C60817099274E969093AD008093AC002091AB
S1130C70AC003091AD008091690090916A00281712
S1130C80390760F481E090E090936A0080936900F2
S1130C900F5F1F4F10936C0000936B0080916B00EB
S1130CA090916C000D9758F081E090E090936C0067
S1130CB080936B002196D0936800C0936700DF9106
S1130CC0CF911F910F910895D9DB1092AF0010922C
S1130CD0AE0037DCB89AB99ABA9ABB9A11BA14BA68
S1130CE015BAFADB56DE18C0D4DCC82F8091600038
S1130CF0C8130BC084EF91E0C2DBCBDC2C2F33276D
S1130D0027FD30958217930739F4CF3F29F08C2FB4
S1130D10EEDC3FDEC09360008091AE009091AF00A6
S1130D20892B11F3E1DE35DEF7CFA29FB001B39F2B
S1130D30C001A39F01D0B29F700D811D1124911D8C
S1130D40089506D084FF0895CB0102D0805F0895F2
S1130D50AA27992329F4A85F982B11F480E1089518
S1130D60903118F4AD5F9295A395990FE8F78A2F07
S1130D70992708952F923F924F925F926F927F929C
S1130D808F929F92AF92BF92CF92DF92EF92FF9297
S1130D900F931F93CF93DF93CDB7DEB7CA1BDB0B43
S1130DA00FB6F894DEBF0FBECDBF09942A883988E8
S1130DB048885F846E847D848C849B84AA84B984EF
S1130DC0C884DF80EE80FD800C811B81AA81B981FB
S1130DD0CE0FD11D0FB6F894DEBF0FBECDBFED010F
S1130DE00895AEE0B0E0E6EFF6E0D2CF0D891E89BB
S1130DF086E08C831A8309838FEF9FE79E838D831C
S1130E00CE014996AC016F89788DCE01019662D0EE
S1130E10EF81F885E00FF11F10822E96E4E0D4CF25
S1130E203BD080F09F3740F491110EF04DC060E04C
S1130E3070E080E89FEB089526F41B16611D711D78
S1130E40811D01C01BC0882371F4772321F09850C1
S1130E50872B762F07C0662311F499270DC0905174
S1130E60862B70E060E02AF09A95660F771F881F42
S1130E70DAF7880F9695879597F908959F3F31F093
S1130E80915020F4879577956795B795880F911DB4
S1130E909695879597F9089592D2A0F0BEE7B91771
S1130EA088F4BB279F3860F41616B11D672F782F7E
S1130EB08827985FF7CF869577956795B11D9395A9
S1130EC09639C8F30895E894BB2766277727CB01A2
S1130ED097F90895ACE0B0E0EFE6F7E04BCF7C0182
S1130EE06B018A01FC0117821682838181FFB9C1DB
S1130EF088248394912C8C0E9D1EF7019381F60116
S1130F0093FD859193FF81916F01882309F4A5C115
S1130F10853239F493FD859193FF81916F01853278
S1130F2021F4B70190E0B9D1E8CF512C312C20E065
S1130F302032A8F48B3261F028F4803251F08332ED
S1130F4071F40BC08D3239F0803349F4216028C02C
S1130F502260246025C0286023C0206121C027FDB1
S1130F6027C0382F30533A3078F426FF06C0FAE011
S1130F705F9E300D1124532E13C08AE0389E300D2D
S1130F801124332E20620CC08E3221F426FD65C15B
S1130F90206406C08C3611F4206802C0883641F4FF
S1130FA0F60193FD859193FF81916F018111C0CF6B
S1130FB0982F9554933018F09052933028F40C5F86
S1130FC01F4FFFE3F9830DC0833631F0833771F08F
S1130FD0833509F05AC022C0F801808189830E5FED
S1130FE01F4F44244394512C540114C03801F2E09F
S1130FF06F0E711CF801A080B18026FF03C0652D1F
S113100070E002C06FEF7FEFC5012C873BD12C014C
S113101083012C856FE7262E222217C03801F2E0C7
S11310206F0E711CF801A080B18026FF03C0652DEE
S113103070E002C06FEF7FEFC5012C8718D12C013F
S11310402C8550E8252E222A830123FC1AC005C0D2
S1131050B70180E290E021D13A94832D90E04816C4
S11310605906B0F30EC0F50127FC859127FE819146
S11310705F01B70190E011D131103A94F1E04F1AB9
S113108051084114510479F7E5C0843611F08936CA
S113109039F5F80127FF07C060817181828193814E
S11310A00C5F1F4F08C060817181882777FD809590
S11310B0982F0E5F1F4F4FE6B42EB22297FF09C040
S11310C090958095709561957F4F8F4F9F4FF0E875
S11310D0BF2A2AE030E0A4010CD1A82EA81842C0EF
S11310E0853731F43FEEB32EB2222AE030E024C03B
S11310F099EFB92EB2228F36B9F020F4883509F071
S1131100ACC00DC0803721F0883709F0A6C002C0FA
S113111020E1B22AB4FE0BC084E0B82A08C024FF40
S113112009C0E6E0BE2A06C028E030E005C020E1A0
S113113030E002C020E132E0F801B7FE07C0608170
S11311407181828193810C5F1F4F06C06081718120
S113115080E090E00E5F1F4FA401CBD0A82EA8180A
S1131160FFE7BF22B6FE0BC02B2D2E7FA51450F433
S1131170B4FE0AC0B2FC08C02B2D2E7E05C07A2C0A
S11311802B2D03C07A2C01C0752C24FF0DC0FE0149
S1131190EA0DF11D8081803311F4297E09C022FFFC
S11311A006C07394739404C0822F867809F07394F4
S11311B023FD13C020FF0EC05A2C731458F4530C93
S11311C05718732C07C0B70180E290E02C8765D0D4
S11311D073942C857314B8F304C0731410F4371883
S11311E001C0312C24FF11C0B70180E390E02C87AB
S11311F054D02C8522FF1CC021FF03C088E590E059
S113120002C088E790E0B7010CC0822F867881F095
S113121021FD02C080E201C08BE227FD8DE2B7010F
S113122090E03BD005C0B70180E390E036D05A94FB
S1131230A514C8F3AA94F401EA0DF11DB701808145
S113124090E02BD0A110F6CF05C0B70180E290E06A
S113125024D03A943110F9CF50CEF701268137814A
S113126002C02FEF3FEFC9012C96E2E19FCDFC01B4
S11312700590615070400110D8F7809590958E0FBD
S11312809F1F0895FC016150704001900110D8F730
S1131290809590958E0F9F1F08950F931F93CF9362
S11312A0DF938C01EB018B8181FD03C00FEF1FEFF6
S11312B01AC082FF0DC02E813F818C819D81281729
S11312C0390764F4E881F9810193F983E88306C05E
S11312D0E885F985802F0995892B41F78E819F81B7
S11312E001969F838E83C801DF91CF911F910F9147
S11312F00895FA01AA27283051F1203181F1E894A8
S11313006F936E7F6E5F7F4F8F4F9F4FAF4FB1E0F4
S11313103ED0B4E03CD0670F781F891F9A1FA11DEF
S1131320680F791F8A1F911DA11D6A0F711D811DF0
S1131330911DA11D20D009F468943F912AE0269FB5
S113134011243019305D3193DEF6CF010895462F14
S11313504770405D4193B3E00FD0C9F7F6CF462FF5
S11313604F70405D4A3318F0495D31FD405241935E
S113137002D0A9F7EACFB4E0A6959795879577951B
S11313806795BA95C9F700976105710508959B01A2
S1131390AC010A2E06945795479537952795BA952B
S11313A0C9F7620F731F841F951FA01D089557FD71
S11313B09058440F551F59F05F3F71F04795880FBF
S11313C097FB991F61F09F3F79F087950895121656
S11313D013061406551FF2CF4695F1DF08C0161602
S11313E017061806991FF1CF8695710561050894B3
S10913F00895F894FFCFFC
S11313F6FF32003B000B00DC071D000200FFFFFF6D
S1131406FF504D00414D00253032692F2530326999
S11314162F2530346900253032693A253032693A4D
S11314262530326900253032693A253032693A2549
S10B1436303269202573000027
S9030000FC
