:100000005CC0000075C0000073C0000071C000003B
:100010006FC000006DC0000002C2000069C0000097
:1000200067C0000065C0000063C0000061C0000040
:100030005FC000005DC000005BC0000059C0000050
:1000400057C0000055C0000053C0000051C0000060
:100050004FC0000054454D5020444F574E0054456A
:100060004D5020555000535045414B4552204F4E66
:1000700000535045414B4552204F464600564F4C89
:10008000554D4520555000564F4C554D4520444F39
:10009000574E0041444A555354494E47205045520B
:1000A000494F44202B0041444A555354494E472060
:1000B000504552494F44202D000011241FBECFE56A
:1000C000D8E0DEBFCDBF10E0A0E6B0E0ECE4F7E0A2
:1000D00002C005900D92A836B107D9F720E0A8E636
:1000E000B0E001C01D92AD36B207E1F74AD22CC391
:1000F00087CF23E023BF3EEF07C032BF28B7216080
:1001000028BF08B600FEFDCF0197B8F713BE0895CB
:10011000662311F0C19A01C0C198C29882BB8FEFCB
:1001200081BBC39A000000000000C3980895C198E5
:10013000C29A11BA90B3C39A00000000000011BA2D
:1001400090B3C39899239CF3E3CFB99ABA9ABB9A18
:1001500080E190E0CEDF60E080E3DADF85E090E0F0
:10016000C8DF60E080E3D4DF81E090E0C2DF60E0E0
:100170008CE3DDDF60E08CE0DADF60E086E0D7DF93
:1001800060E081E0D4CF60E081E0D1CFCF93DF9316
:10019000EC012196FC018491882339F061E0C7DFEE
:1001A000FE01219684918111F9CFDF91CF910895BD
:1001B000CF93DF93EB0140916200509163004817A9
:1001C000590759F164B321E030E0F90102C0EE0FA4
:1001D000FF1F4A95E2F7AF014095462344BB65B344
:1001E000A9010090620002C0440F551F0A94E2F773
:1001F0004095462345BB44B3082E02C0220F331F4F
:100200000A94E2F7342F322B34BB35B320952323E5
:1002100025BB909363008093620080916000909171
:1002200061008C179D07A1F164B3AC014C5F5F4F77
:1002300081E090E09C0102C0220F331F4A95E2F753
:100240002095262324BB45B32091600030916100A6
:100250002C5F3F4FBC0102C0660F771F2A95E2F763
:100260009B012095242325BB44B39E012C5F3F4F67
:1002700002C0880F991F2A95E2F7982F9095942332
:1002800094BB95B3892B85BBD0936100C09360006C
:1002900084E190E02EDF83B390E02496FC010C2EE5
:1002A00002C0F595E7950A94E2F721E030E0E0FF1F
:1002B00002C020E030E0822F932FDF91CF9108958C
:1002C000EF92FF920F931F93CF93DF9300E010E024
:1002D000E12CF12C16C0BE01C8016ADF892B41F068
:1002E000000F111F000F111FC00FD11F21960DC04D
:1002F0002196C430D10579F70F5F1F4F04301105E7
:1003000011F0E701E8CFC0E0D0E08C2F9D2FDF9106
:10031000CF911F910F91FF90EF900895853009F4D0
:100320003AC044F48230D9F0843021F1813009F0B0
:1003300069C00AC0893009F444C08A3009F451C048
:10034000863009F05FC032C080916400833018F0BD
:1003500082508093640017DF84E590E017CF80918E
:1003600064008D3F18F48E5F809364000CDF8EE58F
:1003700090E00CCF81E090916600911180E0809335
:100380006600882321F0FFDE86E690E0FFCEFBDEEC
:1003900081E790E0FBCE809165008F3518F48F5F88
:1003A00080936500F0DE8DE790E0F0CE80916500EF
:1003B000863018F0815080936500E5DE87E890E094
:1003C000E5CE80916800909169008F3F91052CF4F3
:1003D00001969093690080936800D5DE83E990E0F0
:1003E000D5CE809168009091690082302FEF9207FE
:1003F0002CF001979093690080936800C4DE86EA30
:1004000090E0C4CE089589B7806289BF1FBC8CE19B
:100410008EBD84E89EE197BD86BD789408951F92B5
:100420000F920FB60F9211248F9381E080936C008E
:100430008F910F900FBE0F901F90189540916800FC
:1004400050916900849F9001859F300D949F300DDD
:100450001124822F932F0895CF92DF92EF92FF9273
:100460000F931F93CF93DF93F92EE82FF0E0809145
:10047000680090916900892B19F0CF01DFDFFC0142
:10048000809165008E9F90018F9F300D11243695CD
:10049000279536952795ABE7B4E11ED1EC01D695AB
:1004A000C7958F010C1B1D0BAF2DB0E020EA36E87D
:1004B00041E050E01DD19F0140E050E0F2D06901E1
:1004C0007A012091640030E040E050E0C701B601BD
:1004D000E8D069012115310589F0E12CF12C8091DA
:1004E00066008111C49ACE0104DEC498C80101DE01
:1004F0008FEFE81AF80AEC14FD0488F3DF91CF912E
:100500001F910F91FF90EF90DF90CF900895EF92A1
:10051000FF920F931F93CF93DF93E62EF12C1E14BF
:100520001F0444F5C82FD92F00E010E080916C0023
:100530008823A9F0C5DE80936B0090916A0089132F
:1005400007C0BEDE20916B0030E08217930761F494
:1005500080916B00E3DE80916B0080936A001092C3
:100560006C008881998178DF0F5F1F4F22960E15EE
:100570001F05E4F2DF91CF911F910F91FF90EF9053
:100580000895CF93DF93CDB7DEB7CC54D1090FB622
:10059000F894DEBF0FBECDBF8FE087BB11BAD5DDAB
:1005A00014BA15BA10926C002EDFFE0131968CE45D
:1005B000DF011D928A95E9F798E9998385E08A839E
:1005C00070E87B834AE04C83E2E7ED838E83F5E6B7
:1005D000FF8337E03887B0E6B98722E02A87FB87B8
:1005E0008C87ED874E875FE85F87888BAAEAA98BA7
:1005F0003A8B9B8B2C8B5D8B8E8B7F8B488F998F4F
:100600008A8F9B8F3C8F61EA6D8F2E8F9F8F88A37F
:1006100059A34AA36BA38CA31AEC1DA34EA39FA3BB
:1006200088A779A74AA7EBA78CA7FDA73EA7BFA7D6
:1006300028ABF9AB8AABEBAB4CAB5DAB8EABAFABE6
:1006400038AF99AF2AAF5BAF8CAF7DAF3EAF5FAF36
:1006500021962FAF219722969FAF229723968FAF97
:10066000239724966FAF249725963FAF259734EBB9
:1006700026963FAF269727962FAF279728966FAFDE
:10068000289729968FAF29972A969FAF2A9789E1B5
:100690002B968FAF2B97BC9A66E2CE01019637DF7F
:1006A000FBCF052E97FB16F4009406D057FD0CD017
:1006B00029D007FC09D07EF49095809570956195BE
:1006C0007F4F8F4F9F4F08955095409530952195BE
:1006D0003F4F4F4F5F4F0895A29FB001B39FC0019E
:1006E000A39F01D0B29F700D811D1124911D08950B
:1006F000F3DFA59F900DB49F900DA49F800D911DD9
:1007000011240895A1E21A2EAA1BBB1BFD010DC0E6
:10071000AA1FBB1FEE1FFF1FA217B307E407F507B1
:1007200020F0A21BB30BE40BF50B661F771F881F8D
:10073000991F1A9469F760957095809590959B0123
:0C074000AC01BD01CF010895F894FFCF7B
:08074C00FFFFFFFF1432010062
:00000001FF
