S010000070726F6A656374352E73726563E8
S11300000C94EE1A0C940B1B0C940B1B0C947E207A
S11300100C940B1B0C940B1B0C940B1B0C940B1BC4
S11300200C940B1B0C942A2B0C940B1B0C940B1B85
S11300300C940B1B0C940B1B0C940B1B0C940B1BA4
S11300400C940B1B0C940B1B0C940B1B0C940B1B94
S11300500C940B1B00000000003E5B4F5B3E3E6BAC
S11300604F6B3E1C3E7C3E1C183C7E3C181C577D4E
S1130070571C1C5E7F5E1C00183C1800FFE7C3E79A
S1130080FF0018241800FFE7DBE7FF30483A060EAC
S11300902629792926407F050507407F05253F5AF3
S11300A03CE73C5A7F3E1C1C08081C1C3E7F142263
S11300B07F22145F5F005F5F06097F017F0066890E
S11300C0956A606060606094A2FFA29408047E0454
S11300D00810207E201008082A1C08081C2A08087A
S11300E01E101010100C1E0C1E0C30383E3830063A
S11300F00E3E0E06000000000000005F0000000736
S1130100000700147F147F14242A7F2A1223130863
S1130110646236495620500008070300001C22413F
S1130120000041221C002A1C7F1C2A08083E0808E3
S11301300080703000080808080800006060002093
S1130140100804023E5149453E00427F4000724976
S11301504949462141494D331814127F102745451A
S113016045393C4A49493141211109073649494930
S113017036464949291E000014000000403400009E
S11301800008142241141414141400412214080207
S1130190015909063E415D594E7C1211127C7F497A
S11301A04949363E414141227F4141413E7F4949CF
S11301B049417F090909013E414151737F080808FB
S11301C07F00417F41002040413F017F08142241CC
S11301D07F404040407F021C027F7F0408107F3E26
S11301E04141413E7F090909063E4151215E7F0993
S11301F0192946264949493203017F01033F4040FA
S1130200403F1F2040201F3F4038403F63140814E4
S11302106303047804036159494D43007F4141411C
S11302200204081020004141417F040201020440FD
S113023040404040000307080020545478407F2881
S11302404444383844444428384444287F38545477
S1130250541800087E090218A4A49C787F0804049A
S11302607800447D40002040403D007F1028440039
S113027000417F40007C047804787C0804047838CA
S113028044444438FC1824241818242418FC7C08FA
S1130290040408485454542404043F44243C404077
S11302A0207C1C2040201C3C4030403C442810282A
S11302B0444C9090907C4464544C44000836410073
S11302C00000770000004136080002010204023CED
S11302D02623263C1EA1A161123A4040207A3854BC
S11302E05455592155557941215454784121555437
S11302F0784020545579400C1E5272123955555588
S113030059395454545939555454580000457C4172
S11303100002457D420001457C40F0292429F0F08B
S1130320282528F07C545545002054547C547C0ADC
S1130330097F4932494949323248484832324A48A9
S113034048303A4141217A3A42402078009DA0A0A9
S11303507D39444444393D4040403D3C24FF2424FD
S1130360487E4943662B2FFC2F2BFF0929F620C01A
S1130370887E090320545479410000447D4130486B
S1130380484A32384040227A007A0A0A727D0D19AE
S1130390317D2629292F28262929292630484D4010
S11303A020380808080808080808382F10C8ACBA0C
S11303B02F102834FA00007B000008142A1422228B
S11303C0142A1408AA005500AAAA55AA55AA00007E
S11303D000FF00101010FF00141414FF001010FF91
S11303E000FF1010F010F0141414FC001414F700A3
S11303F0FF0000FF00FF1414F404FC141417101F72
S113040010101F101F1414141F00101010F00000FF
S113041000001F101010101F10101010F01000001A
S113042000FF101010101010101010FF100000002A
S1130430FF140000FF00FF00001F10170000FC0461
S1130440F414141710171414F404F40000FF00F744
S113045014141414141414F700F7141414171410A7
S1130460101F101F141414F4141010F010F00000D6
S11304701F101F0000001F14000000FC140000F0F7
S113048010F01010FF10FF141414FF141010101F9C
S113049000000000F010FFFFFFFFFFF0F0F0F0F0AD
S11304A0FFFFFF0000000000FFFF0F0F0F0F0F38CA
S11304B0444438447C2A2A3E147E02020606027E04
S11304C0027E0263554941633844443C04407E2023
S11304D01E2006027E020299A5E7A5991C2A492A34
S11304E01C4C7201724C304A4D4D303048784830C3
S11304F0BC625A463D3E494949007E0101017E2ABB
S11305002A2A2A2A44445F444440514A44404044ED
S11305104A51400000FF0103E080FF000008086B1F
S11305206B083612362436060F090F060000181819
S11305300000001010003040FF0101001F01011EE7
S113054000191D1712003C3C3C3C00000000002038
S11305500010000300000000000000000000000084
S113056000000000000000FF00C0000000000000C8
S1130570000000000000FF00C0FF00C0FF00C0FF3B
S113058000C0000000000000FF00C0FF00C0FF002A
S1130590C0FF00C0FF00C0000000000000FF00C05A
S11305A0FF00C0FF00C0FF00C0FF00C0FF00C0008C
S11305B00000000000000000000000000000000037
S11305C000FF00C0FF00C0FF00C0000000000000EA
S11305D0000000000000000000000000000000FF18
S11305E000C0FF00C0000000000000000000000088
S11305F000000000FF00C000000000000000000038
S1130600000000000000FF00C0FF00C0FF00C000A9
S11306100000000000000000000000000000FF00D7
S1130620C0FF00C0000000FF00C000000000000088
S1130630000000000000FF00C0FF00C0FF00C0FF7A
S113064000C0FF00C0000000FF00C0FF00C0FF00AA
S1130650C0FF00C0FF00C0FF00C000000000000099
S1130660000000FF00C0FF00C00000000000000008
S11306700000000000000000000000000000000076
S113068000000000000000FF00C0000000000000A7
S11306900000000000000000000000000000000056
S11306A00000FF00C0000000000000000000000087
S11306B000000000FF00C000000000000000000077
S11306C0FF00C0FF00C000000000000000000000A8
S11306D00000000000000000000000000000000016
S11306E000000000000000FF00C000000000000047
S11306F0000000000000000000000000000000FFF7
S113070000C0FF00C0000000000000000000000066
S113071000FF00C0FF00C0000000000000FF00C098
S1130720FF00C00000000000000000000000000006
S113073000000000000000000000000000000000B5
S113074000FF00C0FF00C0FF00C0FF00C0FF00C0EA
S1130750FF00C0000000FF00C0FF00C0FF00C0FF9A
S113076000C0000000000000FF00C0FF00C0FF0048
S1130770C0FF00C0000000000000FF00C0FF00C078
S11307800000000000000000000000000000000065
S1130790000000000000000000000000000084FFD2
S11307A02A84FF2A84FF2A84FF2A00000000000014
S11307B000000084FF2A84FF2A84FF2A84FF2A84FD
S11307C0FF2A84FF2A00000000000000000084FFCC
S11307D02A84FF2A84FF2A00000000000084FF2AE4
S11307E084FF2A00000000000084FF2A84FF2A847A
S11307F0FF2A00000000000000000084FF2A84FF9C
S11308002A84FF2A84FF2A84FF2A84FF2A00000006
S113081000000084FF2A84FF2A84FF2A84FF2A849C
S1130820FF2A84FF2A00000000000000000084FF6B
S11308302A84FF2A84FF2A00000000000084FF2A83
S113084084FF2A00000000000084FF2A84FF2A009D
S1130850000000000000000000000084FF2A84FF64
S11308602A84FF2A00000084FF2A84FF2A00000053
S113087000000084FF2A84FF2A84FF2A84FF2A843C
S1130880FF2A84FF2A84FF2A00000000000084FF5E
S11308902A00000084FF2A00000000000084FF2AD0
S11308A000000000000084FF2A84FF2A00000000EA
S11308B0000000000000000084FF2A84FF2A0000DA
S11308C00000000000000000000084FF2A00000077
S11308D084FF2A84FF2A84FF2A000000000000000D
S11308E0000084FF2A84FF2A00000000000084FF27
S11308F02A00000084FF2A84FF2A00000084FF2AC3
S113090000000000000084FF2A0000000000000036
S1130910000000000000000084FF2A84FF2A84FFF6
S11309202A00000000000084FF2A84FF2A0000003F
S113093084FF2A84FF2A0000000000000000000059
S1130940000084FF2A84FF2A84FF2A00000084FF19
S11309502A00000084FF2A84FF2A00000084FF2A62
S113096000000084FF2A84FF2A00000084FF2A84F8
S1130970FF2A84FF2A00000084FF2A84FF2A84FFC0
S11309802A84FF2A84FF2A84FF2A84FF2A00000085
S113099084FF2A84FF2A84FF2A000000000000004C
S11309A0000084FF2A84FF2A00000084FF2A84FFB9
S11309B02A00000000000084FF2A00000084FF2AAF
S11309C000000084FF2A00000000000000000084F2
S11309D0FF2A84FF2A00000084FF2A84FF2A84FF60
S11309E02A84FF2A84FF2A84FF2A84FF2A00000025
S11309F084FF2A84FF2A84FF2A00000000000000EC
S1130A00000084FF2A84FF2A00000084FF2A0000DB
S1130A100000000000000084FF2A84FF2A84FF2ACB
S1130A2000000084FF2A0000000000000000008491
S1130A30FF2A84FF2A00000084FF2A84FF2A84FFFF
S1130A402A00000000000000000000000000000078
S1130A5000000084FF2A84FF2A84FF2A84FF2A845A
S1130A60FF2A84FF2A84FF2A00000084FF2A84FFCF
S1130A702A00000000000084FF2A84FF2A84FF2A41
S1130A8000000084FF2A84FF2A84FF2A84FF2A842A
S1130A90FF2A84FF2A84FF2A84FF2A84FF2A000075
S1130AA00000000000000000000000000000000042
S1130AB000000084FF2A84FF2A84FF2A84FF2A84FA
S1130AC0FF2A84FF2A00000000000000000084FFC9
S1130AD02A00000000000084FF2A84FF2A84FF2AE1
S1130AE000000084FF2A84FF2A84FF2A84FF2A84CA
S1130AF0FF2A84FF2A84FF2A84FF2A0000000000C2
S1130B0000000000000000000000000000000000E1
S1130B1000000000000000000084FF2A84FF2A84F3
S1130B20FF2A000000000000000000000000000098
S1130B3000000000000000000000000000000000B1
S1130B4000000000000000000000000000000000A1
S1130B50000000000000200010000300000000005E
S1130B600000000000000000000000000000000081
S1130B700000000000000000000000000000000071
S1130B800000000000000000000000000000000061
S1130B900000000000000000000000000000000051
S1130BA00000000000000000000000000000000041
S1130BB00000000000000000000000000000000031
S1130BC000000000000000007800FF7800FF000033
S1130BD0000000000000007800FF7800FF7800FFAC
S1130BE00000007800FF7800FF7800FF000000009C
S1130BF000007800FF7800FF7800FF00000000008C
S1130C00007800FF0000000000007800FF000000F2
S1130C1000000000000000000000000000000000D0
S1130C2000000000000000007800FF0000007800D1
S1130C30FF0000000000007800FF0000000000003A
S1130C400000007800FF0000007800FF00000000B2
S1130C5000007800FF000000000000000000000019
S1130C60007800FF0000007800FF7800FF0000001B
S1130C700000000000000000000000000000000070
S1130C8000000000000000007800FF0000000000E9
S1130C90007800FF0000007800FF7800FF7800FF74
S1130CA00000007800FF7800FF7800FF00000000DB
S1130CB000007800FF7800FF7800FF0000000000CB
S1130CC0007800FF7800FF7800FF000000000000BB
S1130CD00000000000000000000000000000000010
S1130CE000000000000000007800FF000000780011
S1130CF0FF0000000000007800FF0000000000007A
S1130D000000007800FF0000000000007800FF00F1
S1130D1000007800FF000000000000000000000058
S1130D20007800FF0000007800FF7800FF0000005A
S1130D3000000000000000000000000000000000AF
S1130D4000000000000000007800FF7800FF0000B1
S1130D50000000000000007800FF7800FF7800FF2A
S1130D600000007800FF0000000000007800FF0091
S1130D7000007800FF7800FF7800FF7800FF000093
S1130D80007800FF0000000000007800FF7800FFFA
S1130D90000000000000000000000000000000004F
S1130DA0000000000000000000000000000000003F
S1130DB0000000000000000000000000000000002F
S1130DC0000000000000000000000000000000001F
S1130DD0000000000000000000000000000000000F
S1130DE000000000000000000000000000000000FF
S1130DF000000000000000000000000000000000EF
S1130E0000000000000000000000000000000000DE
S1130E1000000000000000000000000000000000CE
S1130E2000000000000000000000000000000000BE
S1130E3000000000000000000000000000000000AE
S1130E40000000000000000000000000000000009E
S1130E50000000000000000000000000000000008E
S1130E6000000000007800FF000000000000000007
S1130E70000000007800FF0000000000007800FF80
S1130E807800FF7800FF7800FF0000000000007881
S1130E9000FF0000000000000000007800FF0000D8
S1130EA0007800FF7800FF7800FF7800FF00000062
S1130EB0000000000000000000000000000000002E
S1130EC000000000007800FF0000000000000000A7
S1130ED0000000007800FF0000000000007800FF20
S1130EE00000000000007800FF000000000000780F
S1130EF000FF7800FF0000000000007800FF000001
S1130F00007800FF00000000000000000000000066
S1130F1000000000000000000000000000000000CD
S1130F2000000000007800FF000000000000000046
S1130F30000000007800FF0000000000007800FFBF
S1130F400000000000007800FF00000000000078AE
S1130F5000FF0000007800FF0000007800FF0000A0
S1130F60007800FF00000000000000000000000006
S1130F70000000000000000000000000000000006D
S1130F8000000000007800FF0000000000000000E6
S1130F90000000007800FF0000000000007800FF5F
S1130FA07800FF7800FF7800FF0000000000007860
S1130FB000FF0000007800FF0000007800FF000040
S1130FC0007800FF0000007800FF7800FF7800FF41
S1130FD0000000000000000000000000000000000D
S1130FE000000000007800FF000000000000000086
S1130FF0000000007800FF0000000000007800FFFF
S11310000000000000007800FF00000000000078ED
S113101000FF0000000000007800FF7800FF0000DF
S1131020007800FF0000000000000000007800FFCE
S113103000000000000000000000000000000000AC
S113104000000000007800FF7800FF7800FF7800BF
S1131050FF0000007800FF0000007800FF0000009F
S11310600000000000000000007800FF000000788D
S113107000FF0000000000007800FF7800FF00007F
S1131080007800FF7800FF7800FF7800FF7800FF09
S1131090000000000000000000000000000000004C
S11310A0000000000000000000000000000000003C
S11310B0000000000000000000000000000000002C
S11310C0000000000000000000000000000000001C
S11310D0000000000000000000000000000000000C
S11310E0000000000000000000000000007800FF85
S11310F000000000000000000000000000000000EC
S113110000000000000000000000000000000000DB
S113111000000000000000000000000000000000CB
S113112000000000000000000000000000000000BB
S113113000000000000000000000000000000000AB
S1131140000000000000000000000000000000009B
S1131150000000000000000000000000002000105B
S11311600003000000000000000000000000000078
S1131170000000000000000000000000000000006B
S1131180000000000000000000000000000000005B
S1131190000000000000000000000000000000004B
S11311A0000000000000000000000000000000003B
S11311B0000000000000000000000000000000002B
S11311C00000000000000000007800FF7800FF78B5
S11311D000FF7800FF0000007800FF7800FF78002F
S11311E0FF0000000000007800FF7800FF7800FF97
S11311F00000007800FF7800FF7800FF7800FF000F
S113120000007800FF0000000000007800FF0000EC
S113121000000000000000000000000000000000CA
S11312200000000000000000007800FF0000000043
S113123000007800FF0000007800FF000000780044
S1131240FF0000000000007800FF00000000000024
S11312500000007800FF0000000000007800FF009C
S113126000007800FF7800FF0000007800FF000015
S1131270000000000000000000000000000000006A
S11312800000000000000000007800FF00000000E3
S113129000007800FF0000007800FF7800FF78006D
S11312A0FF0000000000007800FF7800FF7800FFD6
S11312B00000007800FF0000000000007800FF003C
S11312C000007800FF0000007800FF7800FF0000B5
S11312D0000000000000000000000000000000000A
S11312E00000000000000000007800FF7800FF7894
S11312F000FF7800FF0000007800FF0000000000FD
S1131300007800FF0000000000000000007800FFEB
S11313100000007800FF7800FF7800FF7800FF00ED
S113132000007800FF0000000000007800FF0000CB
S113133000000000000000000000000000000000A9
S11313400000000000000000000000000000000099
S113135000000000000000007800FF000000000012
S1131360007800FF0000007800FF7800FF7800FF9D
S11313700000000000000000000000000000000069
S11313800000000000000000000000000000000059
S11313900000000000000000000000000000000049
S11313A00000000000000000000000000000000039
S11313B000000000000000007800FF0000000000B2
S11313C0007800FF000000000000000000000000A2
S11313D00000000000000000000000000000000009
S11313E000000000000000000000000000000000F9
S11313F000000000000000000000000000000000E9
S113140000000000000000000000000000000000D8
S113141000000000000000000000000000000000C8
S113142000000000000000000000000000000000B8
S113143000000000000000000000000000000000A8
S11314400000000000000000000000000000000098
S11314500000000000000000000000000000000088
S11314600000000000000000007800FF7800FF7812
S113147000FF0000007800FF7800FF7800FF000004
S1131480007800FF7800FF7800FF0000007800FF7C
S11314907800FF0000000000000000007800FF78E2
S11314A000FF7800FF0000007800FF7800FF0000D4
S11314B0000000000000007800FF7800FF7800FFC3
S11314C00000000000000000000000007800FF00A1
S11314D000000000007800FF000000000000000091
S11314E0007800FF0000007800FF0000007800FF93
S11314F07800FF7800FF0000000000007800FF0083
S113150000007800FF0000007800FF000000780071
S1131510FF0000000000007800FF0000007800FFDA
S11315200000000000000000000000007800FF0040
S113153000000000007800FF000000000000000030
S1131540007800FF0000007800FF0000007800FF32
S11315500000007800FF7800FF0000007800FF0022
S113156000007800FF0000007800FF000000780011
S1131570FF7800FF0000007800FF0000007800FF03
S11315800000000000000000000000007800FF00E0
S113159000000000007800FF7800FF000000000059
S11315A0007800FF0000007800FF0000007800FFD2
S11315B00000000000007800FF0000007800FF0039
S11315C000007800FF0000007800FF7800FF0000B2
S11315D0000000000000007800FF0000007800FF19
S11315E00000000000000000000000007800FF0080
S11315F000000000007800FF000000000000000070
S1131600007800FF0000007800FF0000007800FF71
S11316100000007800FF0000000000007800FF00D8
S113162000007800FF0000007800FF000000780050
S1131630FF0000000000007800FF0000007800FFB9
S11316400000000000000000000000007800FF001F
S113165000000000007800FF7800FF7800FF000021
S1131660007800FF7800FF7800FF0000007800FF9A
S11316707800FF0000000000000000007800FF7800
S113168000FF7800FF0000007800FF000000000069
S1131690007800FF0000007800FF7800FF7800FF6A
S11316A00000000000000000000000000000000036
S11316B00000000000000000000000000000000026
S11316C00000000000000000000000000000000016
S11316D00000000000000000000000000000000006
S11316E000000000000000000000000000000000F6
S11316F000000000000000000000000000000000E6
S113170000000000000000000000000000000000D5
S113171000000000000000000000000000000000C5
S113172000000000000000000000000000000000B5
S113173000000000000000000000000000000000A5
S11317400000000000000000000000000000000095
S11317500000000000000000000000000000000085
S11317600000000020001000030000000000000042
S11317700000000000000000000000000000000065
S11317800000000000000000000000000000000055
S11317900000000000000000000000000000000045
S11317A00000000000000000000000000000000035
S11317B00000000000000000000000000000000025
S11317C00000000000000000000000000000000015
S11317D00000000000000000000000000000000005
S11317E000000000000000000000000000000000F5
S11317F000000000000000000000000000000000E5
S113180000000000000000000000000000000000D4
S113181000000000000000000000000000000000C4
S113182000000000000000000000000000000000B4
S113183000000000000000000000000000000000A4
S11318400000000000000000000000000000000094
S11318500000000000000000000000000000000084
S11318600000000000000000000000000000000074
S11318700000000000000000000000000000000064
S11318800000000000000000000000000000000054
S11318900000000000000000000000000000000044
S11318A00000000000000000000000000000000034
S11318B00000000000000000000000000000000024
S11318C00000000000000000000000000000000014
S11318D00000000000000000000000000000000004
S11318E000000000000000000000000000000000F4
S11318F000000000000000000000000000000000E4
S113190000000000000000000000000000000000D3
S113191000000000000000000000000000000000C3
S113192000000000000000000000000000000000B3
S113193000000000000000000000000000000000A3
S113194000000000000000000000000000F000FFA4
S1131950F000FFF000FFF000FFF000FF000000F0D7
S113196000FFF000FFF000FFF000FF0000000000A7
S113197000F000FFF000FFF000FF000000F000FFA7
S1131980000000000000000000000000F000FF0064
S11319900000F000FFF000FFF000FF000000F00086
S11319A0FFF000FFF000FF000000000000F000FF67
S11319B0000000000000000000000000000000F033
S11319C000FF000000000000F000FF000000000025
S11319D000F000FF000000000000000000F000FF25
S11319E0F000FF000000000000000000F000FF0015
S11319F00000000000F000FF000000000000F00004
S1131A00FF000000000000000000000000F000FFE4
S1131A10000000000000000000000000000000F0D2
S1131A2000FFF000FFF000FFF000FF0000000000E6
S1131A3000F000FFF000FFF000FF000000F000FFE6
S1131A40000000F000FF000000000000F000FF00B4
S1131A500000000000F000FF000000F000FF0000A4
S1131A6000000000000000000000000000F000FF83
S1131A70000000000000000000000000000000F072
S1131A8000FF000000000000F000FFF000FF000075
S1131A9000F000FF000000000000000000F000FF64
S1131AA0000000000000F000FF000000F000FF0054
S1131AB00000000000F000FF000000F000FFF00054
S1131AC0FFF000FF000000000000000000F000FF35
S1131AD0000000000000000000000000000000F012
S1131AE000FF000000000000000000F000FF000004
S1131AF000F000FF000000000000000000F000FF04
S1131B00000000F000FF000000000000F000FF00F3
S1131B100000000000F000FF0000000000000000D2
S1131B2000000000F000FF000000000000F000FFD3
S1131B30F000FFF000FFF000FFF000FF000000F0F5
S1131B4000FF000000000000000000F000FF0000A3
S1131B5000F000FFF000FFF000FF000000F000FFC5
S1131B60F000FF000000000000000000F000FF0093
S1131B700000000000F000FF000000F000FFF00093
S1131B80FFF000FFF000FF00000000000000000074
S1131B900000000000000000000000000000000041
S1131BA00000000000000000000000000000000031
S1131BB00000000000000000000000000000000021
S1131BC00000000000000000000000000000000011
S1131BD00000000000000000000000000000000001
S1131BE000000000000000000000000000000000F1
S1131BF000000000000000000000000000000000E1
S1131C0000000000000000000000000000000000D0
S1131C1000000000000000000000000000000000C0
S1131C2000000000000000000000000000000000B0
S1131C3000000000000000000000000000000000A0
S1131C400000000000000000000000000000000090
S1131C500000000000000000000000000000000080
S1131C600000000000000000000000000000000070
S1131C700000000000000000000000000000000060
S1131C800000000000000000000000000000000050
S1131C900000000000000000000000000000000040
S1131CA00000000000000000000000000000000030
S1131CB00000000000000000000000000000000020
S1131CC00000000000000000000000000000000010
S1131CD00000000000000000000000000000000000
S1131CE000000000000000000000000000000000F0
S1131CF000000000000000000000000000000000E0
S1131D0000000000000000000000000000000000CF
S1131D1000000000000000000000000000000000BF
S1131D2000000000000000000000000000000000AF
S1131D30000000000000000000000000000000009F
S1131D40000000000000000000000000000000008F
S1131D50000000000000000000000000000000007F
S1131D60000000000000000000000020001000033C
S1131D70000000000000000000000000000000005F
S1131D80000000000000000000000000000000004F
S1131D90000000000000000000000000000000003F
S1131DA0000000000000000000000000000000002F
S1131DB0000000000000000000000000000000001F
S1131DC0000000000000000000000000000000000F
S1131DD000000000000000000000000000000000FF
S1131DE0000000000000000000000000FFEA00FF07
S1131DF0EA00FFEA0000000000000000000000000C
S1131E0000000000000000FFEA00FFEA00FFEA0013
S1131E10FFEA00FFEA0000000000000000000000EC
S1131E2000000000000000000000000000000000AE
S1131E30000000000000000000000000000000009E
S1131E40000000000000000000FFEA000000005352
S1131E505300FFEA00FFEA00FFEA00FFEA00FFEA9E
S1131E6000FFEA00FFEA00FFEA00FFEA0053530024
S1131E70000000FFEA00FFEA00000000000000008C
S1131E80000000000000000000000000000000004E
S1131E90000000000000000000000000000000003E
S1131EA0000000000000000000FFEA0000000053F2
S1131EB05300FFEA00FFEA00FFEA00FFEA00FFEA3E
S1131EC000FFEA00FFEA00FFEA00FFEA00535300C4
S1131ED0000000FFEA00FFEA00000000000000002C
S1131EE000000000000000000000000000000000EE
S1131EF000000000000000000000000000000000DE
S1131F00000000000000000000FFEA000000005391
S1131F105300535300FFEA00FFEA00FFEA00FFEA20
S1131F2000FFEA00FFEA00FFEA005353000000004C
S1131F30000000FFEA00FFEA0000000000000000CB
S1131F40000000000000000000000000000000008D
S1131F50000000000000000000000000000000007D
S1131F60000000000000000000FFEA000000000084
S1131F700000535300FFEA00FFEA00FFEA00FFEA13
S1131F8000FFEA00FFEA00FFEA00FFEA00FFEA00C0
S1131F90000000FFEA000000000000000000000054
S1131FA0000000000000000000000000000000002D
S1131FB0000000000000000000000000000000001D
S1131FC0000000000000000000FFEA00FFEA00003B
S1131FD00000FFEA00FFEA00535300FFEA00FFEAB3
S1131FE000FFEA00535300FFEA00FFEA00FFEA00A3
S1131FF0FFEA00FFEA00000000000000000000000B
S113200000000000000000000000000000000000CC
S113201000000000000000000000000000000000BC
S1132020000000000000000000000000FFEA00FFC4
S1132030EA00FFEA00535300535300FFEA00FFEAAB
S113204000FFEA00535300535300000000FFEA006E
S1132050FFEA000000000000000000000000000093
S1132060000000000000000000000000000000006C
S1132070000000000000000000000000000000005C
S1132080000000000000000000000000000000004C
S11320900000000000535300535300535300FFEA61
S11320A0005353005353005353000000000000003A
S11320B0000000000000000000000000000000001C
S11320C0000000000000000000000000000000000C
S11320D000000000000000000000000000000000FC
S11320E000000000000000000000000000000000EC
S11320F00000000000000000535300535300FFEAA7
S1132100005353005353000000000000000000007F
S113211000000000000000000000000000000000BB
S113212000000000000000000000000000000000AB
S1132130000000000000000000000000000000009B
S1132140000000000000000000000000000000008B
S11321500000000000000000000000535300FFEAEC
S113216000535300000000000000000000000000C5
S1132170000000000000000000000000000000005B
S1132180000000000000000000000000000000004B
S113219000000000000000000000F000FFF000FF5D
S11321A0F000FFF000FF000000000000000000004D
S11321B00000FFEA00FFEA00FFEA00FFEA00FFEA8E
S11321C000FFEA00FFEA00FFEA00FFEA0000000067
S11321D000000000000000000000000000000000FB
S11321E000000000000000000000000000000000EB
S11321F000000000000000000000000000000000DB
S1132200000000F000FFF000FF00000000000000EC
S11322100000F000FF0000000000000000000000CB
S113222000000000F000FF000000F000FF000000CC
S1132230F000FF000000000000F000FF000000F0CC
S113224000FFF000FFF000FFF000FF0000000000BE
S113225000000000000000000000000000F000FF8B
S1132260F000FFF000FF000000000000000000008C
S11322700000F000FF00000000000000000000006B
S113228000000000F000FF000000F000FF0000006C
S1132290F000FFF000FF000000F000FF000000006D
S11322A00000000000F000FF00000000000000003B
S11322B000000000000000000000F000FFF000FF3C
S11322C0000000000000000000000000000000000A
S11322D00000F000FFF000FF000000F000FF00002D
S11322E000F000FFF000FF000000F000FF0000001D
S11322F0F000FF000000F000FFF000FF000000000D
S11323000000F000FF0000000000000000000000DA
S113231000000000000000000000F000FFF000FFDB
S1132320F000FFF000FFF000FF00000000000000DC
S11323300000000000F000FFF000FF000000F000CB
S1132340FFF000FF000000000000F000FF000000AC
S1132350F000FF000000000000F000FF000000F0AB
S113236000FFF000FFF000FFF000FF00000000009D
S11323700000200010000300000000000000000026
S11323800000000000000000000000000000000049
S11323900000000000000000000000000000000039
S11323A00000000000000000000000000000000029
S11323B00000000000000000000000000000000019
S11323C00000000000000000000000000000000009
S11323D000000000000000000000000000000000F9
S11323E000000000000000000000000000000000E9
S11323F0000000FFEA00FFEA00FFEA00000000001E
S11324000000000000000000000000000000FFEADF
S113241000FFEA00FFEA00FFEA00FFEA0000000014
S113242000000000000000000000000000000000A8
S11324300000000000000000000000000000000098
S11324400000000000000000000000000000000088
S1132450FFEA00000000535300FFEA00FFEA00FF18
S1132460EA00FFEA00FFEA00FFEA00FFEA00FFEAF1
S113247000FFEA00535300000000FFEA00FFEA00F7
S11324800000000000000000000000000000000048
S11324900000000000000000000000000000000038
S11324A00000000000000000000000000000000028
S11324B0FFEA00000000535300FFEA00FFEA00FFB8
S11324C0EA00FFEA00FFEA00FFEA00FFEA00FFEA91
S11324D000FFEA00535300000000FFEA00FFEA0097
S11324E000000000000000000000000000000000E8
S11324F000000000000000000000000000000000D8
S113250000000000000000000000000000000000C7
S1132510FFEA00000000535300535300FFEA00FF9A
S1132520EA00FFEA00FFEA00FFEA00FFEA00FFEA30
S113253000535300000000000000FFEA00FFEA001F
S11325400000000000000000000000000000000087
S11325500000000000000000000000000000000077
S11325600000000000000000000000000000000067
S1132570FFEA00000000000000535300FFEA00FFE0
S1132580EA00FFEA00FFEA00FFEA00FFEA00FFEAD0
S113259000FFEA00FFEA00000000FFEA000000007C
S11325A00000000000000000000000000000000027
S11325B00000000000000000000000000000000017
S11325C00000000000000000000000000000000007
S11325D0FFEA00FFEA00000000FFEA00FFEA005300
S11325E05300FFEA00FFEA00FFEA00535300FFEA4A
S11325F000FFEA00FFEA00FFEA00FFEA0000000033
S113260000000000000000000000000000000000C6
S113261000000000000000000000000000000000B6
S113262000000000000000000000000000000000A6
S1132630000000FFEA00FFEA00FFEA0053530053E2
S11326405300FFEA00FFEA00FFEA0053530053532C
S113265000000000FFEA00FFEA00000000000000A4
S11326600000000000000000000000000000000066
S11326700000000000000000000000000000000056
S11326800000000000000000000000000000000046
S1132690000000000000000000000000535300533D
S11326A05300535300FFEA00535300535300535352
S11326B00000000000000000000000000000000016
S11326C00000000000000000000000000000000006
S11326D000000000000000000000000000000000F6
S11326E000000000000000000000000000000000E6
S11326F00000000000000000000000000000005383
S11327005300535300FFEA00535300535300000097
S113271000000000000000000000000000000000B5
S113272000000000000000000000000000000000A5
S11327300000000000000000000000000000000095
S11327400000000000000000000000000000000085
S11327500000000000000000000000000000000075
S11327600000535300FFEA00535300000000000030
S11327700000000000000000000000000000000055
S11327800000000000000000000000000000000045
S11327900000000000000000000000000000000035
S11327A00000000000000000000000000000000025
S11327B0000000000000000000FFEA00FFEA00FF44
S11327C0EA00FFEA00FFEA00FFEA00FFEA00FFEA8E
S11327D000FFEA000000000000000000000000000C
S11327E000000000000000000000000000000000E5
S11327F000000000000000000000000000000000D5
S113280000000000000000F000FFF000FF000000E6
S1132810000000000000000000F000FF00000000C5
S11328200000000000000000000000F000FF0000B5
S113283000F000FF000000F000FF000000000000B6
S1132840F000FF000000F000FFF000FFF000FFF0D8
S113285000FF000000000000000000000000000075
S113286000000000F000FF000000F000FF00000086
S1132870000000000000000000F000FF0000000065
S11328800000000000000000000000F000FF000055
S113289000F000FF000000F000FFF000FF00000067
S11328A0F000FF000000000000000000F000FF0046
S11328B00000000000000000000000000000000014
S11328C000000000000000000000F000FF00000015
S11328D0000000000000000000F000FFF000FF0016
S11328E00000F000FF000000F000FFF000FF000017
S11328F000F000FF000000F000FF000000F000FF07
S1132900F000FF000000000000F000FF00000000E5
S113291000000000000000000000000000000000B3
S113292000000000F000FFF000FFF000FFF000FFE7
S1132930F000FF000000000000000000F000FFF0C5
S113294000FF000000F000FFF000FF0000000000A6
S113295000F000FF000000F000FF00000000000095
S1132960F000FF000000F000FFF000FFF000FFF0B7
S113297000FF000000000000002000100003000021
S11329800000000000000000000000000000000043
S11329900000000000000000000000000000000033
S11329A00000000000000000000000000000000023
S11329B00000000000000000000000000000000013
S11329C00000000000000000000000000000000003
S11329D000000000000000000000000000000000F3
S11329E00000000000FF00C0000000FF00C0FF0066
S11329F0C0000000000000FF00C0000000FF00C095
S1132A00FF00C0FF00C0FF00C0000000FF00C0FFC7
S1132A1000C0FF00C0FF00C0000000FF00C0FF00B6
S1132A20C0FF00C0FF00C0000000000000FF00C0A5
S1132A30FF00C0FF00C0FF00C0FF00C00000000096
S1132A400000000000FF00C0000000FF00C0FF0005
S1132A50C0FF00C0000000FF00C0000000FF00C075
S1132A60000000000000000000000000FF00C000A3
S1132A700000000000000000000000FF00C0000093
S1132A8000000000FF00C000000000000000000083
S1132A90000000FF00C00000000000000000000073
S1132AA00000000000FF00C0000000FF00C00000A4
S1132AB000FF00C0000000FF00C0000000FF00C0D5
S1132AC0FF00C0FF00C0FF00C0000000FF00C0FF07
S1132AD000C0FF00C0000000000000FF00C0FF00B5
S1132AE0C0FF00C0FF00C0000000000000000000A4
S1132AF0000000FF00C00000000000000000000013
S1132B000000000000FF00C0000000FF00C0000043
S1132B1000FF00C0FF00C0FF00C000000000000074
S1132B20000000000000FF00C0000000FF00C00023
S1132B300000000000000000000000FF00C00000D2
S1132B4000000000FF00C0FF00C000000000000003
S1132B50000000FF00C000000000000000000000B2
S1132B600000000000FF00C0000000FF00C00000E3
S1132B7000000000FF00C0FF00C0000000FF00C014
S1132B80FF00C0FF00C0FF00C0000000FF00C0FF46
S1132B9000C0FF00C0FF00C0000000FF00C0000034
S1132BA000000000000000FF00C000000000000062
S1132BB0000000FF00C00000000000000000000052
S1132BC00000000000000000000000000000000001
S1132BD000000000000000000000000000000000F1
S1132BE000000000000000000000000000000000E1
S1132BF000000000000000000000000000000000D1
S1132C0000000000000000000000000000000000C0
S1132C1000000000000000000000000000000000B0
S1132C2000000000000000000000000000000000A0
S1132C3000000000000000FF00C0FF00C0FF00C053
S1132C40FF00C0000000000000000000FF00C0FF03
S1132C5000C0FF00C0FF00C0FF00C0000000000073
S1132C6000000000000000000000FF00C0000000A1
S1132C700000000000000000000000000000000050
S1132C800000000000000000000000000000000040
S1132C9000000000000000FF00C000000000000071
S1132CA0FF00C0FF00C0000000000000FF00C000E3
S1132CB00000000000000000000000000000000010
S1132CC000000000000000000000FF00C000000041
S1132CD000000000000000000000000000000000F0
S1132CE000000000000000000000000000000000E0
S1132CF000000000000000000000000000000000D0
S1132D00000000FF00C0000000000000FF00C00041
S1132D1000000000000000000000000000000000AF
S1132D2000000000FF00C0FF00C0FF00C0FF00C0A3
S1132D30FF00C000000000000000000000000000D0
S1132D40000000000000000000000000000000007F
S1132D50000000000000000000000000000000006F
S1132D60FF00C0FF00C0000000000000FF00C0FF23
S1132D7000C0FF00C0FF00C0FF00C0000000000052
S1132D8000000000FF00C0000000FF00C0000000C1
S1132D90000000000000000000000000000000002F
S1132DA0000000000000000000000000000000001F
S1132DB000000000000000000000000000FF00C050
S1132DC0FF00C00000000000000000000000000040
S1132DD00000000000000000FF00C0000000000030
S1132DE000000000FF00C0000000FF00C000000061
S1132DF000000000000000000000000000000000CF
S1132E0000000000000000000000000000000000BE
S1132E1000000000000000000000FF00C0FF00C030
S1132E20000000000000000000000000000000009E
S1132E300000000000000000FF00C00000000000CF
S1132E4000000000FF00C0FF00C0FF00C0FF00C082
S1132E50FF00C000000000000000000000000000AF
S1132E60000000000000000000000000000000005E
S1132E7000000000000000FF00C0FF00C0000000D0
S1132E80000000000000000000000000000000003E
S1132E900000000000000000FF00C000000000006F
S1132EA000000000000000000000FF00C00000005F
S1132EB0000000000000000000000000000000000E
S1132EC000000000000000000000000000000000FE
S1132ED000000000000000FF00C0FF00C0FF00C0B1
S1132EE0FF00C0FF00C0FF00C0000000FF00C0FFE3
S1132EF000C0FF00C0FF00C0FF00C00000000000D1
S1132F0000000000000000000000FF00C0000000FE
S1132F1000000000000000000000000000000000AD
S1132F20000000000000000000000000000000009D
S1132F30000000000000000000000000000000008D
S1132F40000000000000000000000000000000007D
S1132F50000000000000000000000000000000006D
S1132F60000000000000000000000000000000005D
S1132F70000000000000000000000000000000004D
S1132F80200010000300000000000000000000000A
S1132F90000000000000000000000000000000002D
S1132FA00000002B00002B00002B00002B00000071
S1132FB0000000000000000000000000000000000D
S1132FC000000000000000000000000000000000FD
S1132FD00000000000000000002B00002B00002B6C
S1132FE000002B00002B0000000000000000000087
S1132FF0000000000000000000002B00002B000077
S11330002B00002B53530053530000002B000000EF
S113301000000000000000000000000000000000AC
S1133020000000000000000000000000000000009C
S11330300000000000000000002B53530053530015
S113304053530000002B00000000000000000000AB
S1133050000000000000000000002B5353005353F5
S11330600000002B00002B53530000002B00000035
S1133070000000000000000000000000000000004C
S1133080000000000000000000000000000000003C
S11330900000000000000000002B535300535300B5
S11330A053530000002B000000000000000000004B
S11330B0000000000000000000002B00002B0000B6
S11330C02B53530000002B53530000002B0000002F
S11330D000002B00002B00002B00002B00002B0015
S11330E0002B00002B00002B00002B00002B000005
S11330F00000000000000000002B53530053530055
S113310053530000002B00000000000000000000EA
S113311000000000000000000000000000000000AB
S11331202B00002B00002B00002B00002B00002B99
S113313000002B53530000002B00002B00002B0039
S1133140002B00002B00002B00002B00002B0000A4
S11331502B00002B00002B00002B00002B535300EE
S113316053530000002B000000000000000000008A
S1133170000000000000000000000000002B000020
S11331802B535300535300535300535300535300D2
S113319000002B53530000002B00002B00002B00D9
S11331A0002B00002B00002B00002B00002B000044
S11331B02B00002B00002B53530053530053530098
S11331C053530000002B000000000000000000002A
S11331D0000000000000000000002B00002B5353EF
S11331E00000002B00002B53530053530053530093
S11331F053530053530000002B00000000002B0029
S1133200000000002B00000000000000002B000064
S11332100000002B535300535300535300535300E7
S113322053530000002B00000000000000000000C9
S1133230000000000000000000002B5353000000B9
S11332402B00002B5353005353005353005353008C
S113325053530000002B00002B00000000002B0043
S1133260000000002B00000000002B00002B0000D9
S11332700000002B53530053530053530053530087
S113328000002B00002B00000000000000000000E4
S1133290000000002B00002B00002B53530053535D
S11332A00053530053530053530053530000002B57
S11332B000002B00002B00002B00000000002B005E
S11332C0000000002B00000000002B00002B000079
S11332D00000002B53530053530000002B00002B1D
S11332E000002B00000000000000000000002B0084
S11332F0002B00002B5353005353005353005353DC
S11333000000002B00002B00002B00002B00002BE2
S113331000002B53530000002B00000000000000AD
S1133320000000002B00000000000000002B000043
S11333300000002B53530053530053530000002B41
S113334000002B00000000000000000000002B53D0
S1133350530053530053530053530000002B0000F9
S11333602B00002B00000000002B5353005353008C
S113337000002B53530000002B00002B00002B00F7
S1133380002B00002B00002B00002B00002B000062
S11333902B00002B00002B00002B53530053530031
S11333A000002B00002B00000000002B00002B531A
S11333B0530053530000002B00002B00002B00008F
S11333C00000000000002B00002B53530000002BD2
S11333D000002B00002B53530053530000002B001C
S11333E0002B00002B00002B00002B00002B000002
S11333F02B53530053530000002B535300535300DB
S113340053530000002B00000000002B00002B0091
S1133410002B00002B000000000000000000000052
S11334200000000000002B53530000002B00002B71
S113343000002B53530053530053530000002B0040
S1133440002B00002B00002B00002B00002B5353FB
S11334500053530000002B00002B53530053530020
S113346053530000002B0000000000000000000087
S11334700000000000000000000000000000000048
S11334800000002B00002B00002B00002B0000008C
S113349000002B00002B00002B00002B000000007C
S11334A0000000000000000000002B00002B0000C2
S11334B02B00002B00002B00002B53530053530010
S11334C053530000002B0000000000000000000027
S11334D000000000000000000000000000000000E8
S11334E00000002B00002B00002B00000000002B2C
S11334F000002B00002B0000000000000000000072
S113350000000000000000000000000000000000B7
S11335102B5353005353005353005353005353003E
S113352053530000002B00000000000000000000C6
S11335300000000000000000000000000000000087
S11335400000000000000000000000000000000077
S11335500000000000000000000000000000000067
S11335600000000000000000000000000000000057
S11335702B00002B00002B00002B00002B00002B45
S113358000002B00002B0000003B00380035003207
S11335900000003A00370034003100010204081032
S11335A02040800102040810204080010204081019
S11335B0204080804020100804020102020202021E
S11335C002020204040404040404040303030303C2
S11335D003030301010101010101010011241FBEC4
S11335E0CFE5D8E0DEBFCDBF10E0A0E6B0E0E6E86E
S11335F0F3E602C005900D92A637B107D9F722E091
S1133600A6E7B0E001C01D92A834B207E1F70E941A
S113361014230C94C1310C9400002F923F924F92CA
S11336205F926F927F928F929F92AF92BF92CF924E
S1133630DF92EF92FF920F931F93CF93DF9300D00B
S113364000D0CDB7DEB74C017C836B835A013901BE
S1133650C801A8014A195B091AF451954195510909
S113366093016B817C81261B370B1AF431952195CC
S1133670310961E070E02417350714F060E070E070
S11336802B016115710559F0362D272D3C01832F2F
S1133690922F3B812C81BC82AB82A32EB22EAB81B4
S11336A0BC816A167B065CF43A2D2B2D5C01832FBA
S11336B0922F3B812C817C826B82632E722E83013C
S11336C0EB81FC810E1B1F0B1C012A183B081AF40A
S11336D0319421943108680111231CF4FFEFCF1AAF
S11336E0DF0AD594C794A816B9062CF421E030E07B
S11336F03A83298304C06FEF7FEF7A8369838B81D8
S11337009C816816790664F14114510461F0D40176
S11337105996ED91FC915A9797014B815C81B501C3
S1133720C40109950BC0D4015996ED91FC915A97A7
S11337309701A5016B817C81C4010995C218D30846
S113374032F4E981FA81AE0EBF1EC00ED11E2B8168
S11337503C812F5F3F4F3C832B8362167306A4F694
S11337600F900F900F900F90DF91CF911F910F91B9
S1133770FF90EF90DF90CF90BF90AF909F908F908D
S11337807F906F905F904F903F902F9008956F922D
S11337907F928F929F92AF92BF92CF92DF92EF92DD
S11337A0FF920F931F93CF93DF93EC015B016A01A8
S11337B039014801E9A1FAA187010995A601480D3B
S11337C0591D41505109E9A1FAA19301B501CE0156
S11337D00995EF8DF8A19401A601B501CE010995D3
S11337E0A60CB71CB50161507109EF8DF8A19401C5
S11337F0A601CE010995DF91CF911F910F91FF9002
S1133800EF90DF90CF90BF90AF909F908F907F907C
S11338106F900895EF92FF920F931F93240F351F1B
S113382021503109DC015D96ED91FC915E977801A0
S113383089019B0109951F910F91FF90EF900895C5
S1133840EF92FF920F931F93260F371F21503109D8
S1133850DC015D96ED91FC915E9778018A010995F2
S11338601F910F91FF90EF9008956F927F928F9226
S11338709F92AF92BF92CF92DF92EF92FF920F93FB
S11338801F93CF93DF936C014A0138015B01A20EB1
S1133890B31E6A157B0584F4EB01D6015F96ED91A6
S11338A0FC91909787019301A401BE01C60109957B
S11338B02196CA15DB058CF3DF91CF911F910F91EF
S11338C0FF90EF90DF90CF90BF90AF909F908F903C
S11338D07F906F900895EF92FF920F931F93DC01F6
S11338E01C960D911C911D971A962D913C911B9736
S11338F09596ED91FC9196977B0140E050E060E055
S113390070E009951F910F91FF90EF900895EF9249
S1133910FF920F931F93CF93DF93EC017B018A01F6
S1133920CBD1FF82EE82FB86EA86198708871D8742
S11339300C871F8A1F861E86198A188A21E02E8BFF
S11339408FEF9FEF9D8B8C8B9B8B8A8B288F1A8E8E
S1133950198E1C8E1B8E8DE09BE19E8F8D8F8AE0CD
S11339609CE198A38F8F80E29CE19AA389A387ECC2
S11339709BE19CA38BA385E39CE19EA38DA38BE693
S11339809CE198A78FA38AEC9DE19AA789A7DF9170
S1133990CF911F910F91FF90EF9008952F923F9236
S11339A04F925F926F927F928F929F92AF92BF924B
S11339B0CF92DF92EF92FF920F931F93CF93DF93F7
S11339C0CDB7DEB760970FB6F894DEBF0FBECDBF9C
S11339D04C011A830983FD82EC82CB82DC011A96A6
S11339E08D919C911B97681779070CF0BAC01C96AF
S11339F08D919C911D97481759070CF0B2C06C2CFF
S1133A00712CC301880F991F880F991F860D971D6C
S1133A10860F971F01970AF4A4C0C301880F991F4A
S1133A20880F991F880F991F840F951F01970AF417
S1133A3098C030E0C901880F991F880F991F280F7B
S1133A40391F13017F836E83798768871A86261B43
S1133A50370BF901EC5AFF4FFE87ED874B875C87E4
S1133A60FA85F53009F46FC0ED85FE852E813F811E
S1133A70E20FF31F549068C050FE21C03B813130E7
S1133A8071F4AF85B8895996ED91FC915A972981C3
S1133A903A81A5016E817F81CD01099537C0AF853B
S1133AA0B8899596ED91FC919697E980FA80830107
S1133AB09301A601682D742DCD01099527C0EC81D1
S1133AC0FD8129813A81E217F30701F13B8131300D
S1133AD071F4AF85B8895996ED91FC915A972C8170
S1133AE03D81A5016E817F81CD0109950FC0AF8510
S1133AF0B8899596ED91FC919697EC80FD808301B1
S1133B009301A601682D742DCD01099556949A94BC
S1133B10C20CD31CBFEFAB1ABB0A9110ADCF8F847C
S1133B209888EA85EF5FEA8728853985220D331D59
S1133B30398728878E819F8101969F838E83E63003
S1133B4009F08ECF0EC0512C18854984CB84DC84B7
S1133B50AC2CBD2C08E0C401902E812E988B8F874D
S1133B608BCF60960FB6F894DEBF0FBECDBFDF914A
S1133B70CF911F910F91FF90EF90DF90CF90BF9066
S1133B80AF909F908F907F906F905F904F903F90F9
S1133B902F900895CF92EF92FF920F931F93CF939C
S1133BA0DF93EC016A3069F42E898889998938E0B9
S1133BB0239F800D911D1124998B888B1F861E864F
S1133BC03CC06D30D1F1EC88FD880A891B89488995
S1133BD059898E859F85CE88262FBC01CE01DEDED5
S1133BE02E8930E0C901880F991F820F931F880F17
S1133BF0991F4E855F85840F951F9F878E87488DFB
S1133C004423D9F04AEF4203B001439F700D1124BD
S1133C104A855B85460F571F4817590774F4220FCE
S1133C20331F220F331F220F331F88899989280FCE
S1133C30391F398B288B1F861E86DF91CF911F91E8
S1133C400F91FF90EF90CF900895FC0177876687DE
S1133C50518B408B0895FC01738B628B758B648B45
S1133C600895CF92DF92EF92FF920F931F93CF9319
S1133C70DF937C016B01EA01209789F000E010E0FA
S1133C80D6016D916D01D7011296ED91FC911397B8
S1133C90C7010995080F191F219791F702C000E089
S1133CA010E0802F912FDF91CF911F910F91FF9002
S1133CB0EF90DF90CF900895FC011382128281E38C
S1133CC09EE19583848311821082089523E023BFAB
S1133CD033E807C032BF28B7216028BF08B600FE0A
S1133CE0FDCF0197B8F713BE0895FC017383628377
S1133CF008952FE0FC01208327E0218308951F937A
S1133D00CF93DF93EC010E941A2F8170907899234E
S1133D1024F401978E6F9F6F0196182F1F5F0E94E6
S1133D201A2F80FF02C021E001C02FEF219F102D28
S1133D3011241C830E941A2F81709078992324F4F3
S1133D4001978E6F9F6F0196182F1F5F0E941A2F85
S1133D5080FF02C021E001C02FEF219F102D11240C
S1133D601D83DF91CF911F910895FC01908184817F
S1133D70890F808391818581890F81830895FB0157
S1133D80228133814181552747FD509560817727F2
S1133D9067FD70953CC7BA9884B78F7B84BF8BB797
S1133DA080628BBF789408954F925F926F927F9256
S1133DB08F929F92AF92BF92CF92DF92EF92FF9237
S1133DC00F931F93CF93DF93482E592E7B01C12C61
S1133DD0D12C812C912C612C712C2BC09E01FE01C5
S1133DE03696EE0DFF1D6491FE013796EE0DFF1D14
S1133DF044912396285F3F4FF701E20FF31F24916C
S1133E00842D952D0E9449299C01A601B801842D79
S1133E10952DFDD60F5F1F4FAC16BD06F9F680E653
S1133E20880E911C8FEFC81AD80A811486E0980670
S1133E3039F0540180E6A80EB11CE4018301CECF11
S1133E40DF91CF911F910F91FF90EF90DF90CF9072
S1133E50BF90AF909F908F907F906F905F904F90A6
S1133E600895CF92DF92EF92FF920F931F93CF9317
S1133E70DF93CDB7DEB7C055D1090FB6F894DEBFD6
S1133E800FBECDBF7C0119821A821B821C82FE01E7
S1133E9035968CE4DF011D928A95E9F7C7018E5AA5
S1133EA09F4F0E94592B182FC7018F5A9F4F0E9472
S1133EB0592B1F921F931F928F938CE690E09F9330
S1133EC08F938E010F5F1F4F1F930F930E942F2F0D
S1133ED040E050E062E070E0C701B7DECE2CDF2C9A
S1133EE020E040E061E08E2D9F2D0E941E29BC0140
S1133EF0C701B1DE7E01B6E0EB0EF11C0FB6F894FB
S1133F00DEBF0FBECDBFD8016D918D018C2D9D2DCF
S1133F1041DE0E151F05B9F7C05BDF4F0FB6F894ED
S1133F20DEBF0FBECDBFDF91CF911F910F91FF90E8
S1133F30EF90DF90CF900895FC01EF5AFF4F10826D
S1133F40FC01EE5AFF4F10820895209179003091C0
S1133F507A00232B61F0FC01EA57FF4F20812150A6
S1133F6023300CF421E0FC01EA57FF4F208308952D
S1133F702091790030917A00232B61F0FC01EA57FB
S1133F80FF4F20812F5F2E300CF02BE0FC01EA570D
S1133F90FF4F208308952091790030917A00232BDC
S1133FA061F0FC01E257FF4F2081215023300CF4D3
S1133FB021E0FC01E257FF4F20830895209179000E
S1133FC030917A00232B61F0FC01E257FF4F2081EE
S1133FD02F5F2E300CF02BE0FC01E257FF4F2083C3
S1133FE00895CF93DF93EC0183589F4F82DE45E021
S1133FF060E0CE018B579F4FA5D545E06EE1CE0121
S113400083579F4F9FD5DF91CF910895AF92CF9261
S1134010DF92EF92FF920F931F93CF93DF93EC0104
S1134020A12C0F2EF3E1CF2EF02D0F2EF4E1EF2E65
S1134030F02D02E127E146E165E19D2F0E947D28F4
S11340408C2F9D2F0E949128FE01E956FF4F11826B
S11340501082F4D28DE791E00E94242C8DE791E048
S11340600E94D32C8DE791E00E945C2B94DECE015C
S113407063DFCE01B6DF20E041E060E08C2F9D2FAE
S11340800E941E298E0103581F4FBC01C8012DDE5A
S11340906E0185E8C80ED11C44E062E0C6014ED52D
S11340A07E018DE8E80EF11C44E062E0C70146D5CC
S11340B027E040E060E08C2F9D2F0E941E29BC0168
S11340C0C60138D527E040E060E08C2F9D2F0E9488
S11340D01E29BC01C7012ED5C80111DECA56DF4F07
S11340E0188282E380937800DF91CF911F910F9122
S11340F0FF90EF90DF90CF90AF9008951F920F92B2
S11341000FB60F9211242F933F934F935F936F93A6
S11341107F938F939F93AF93BF93EF93FF9380917C
S113412078008F5F809378008DE791E00E94D32C14
S1134130FF91EF91BF91AF919F918F917F916F917B
S11341405F914F913F912F910F900FBE0F901F9051
S113415018950F931F93CF93DF9300D0CDB7DEB79D
S11341609A83898381E190E0B1DD09811A816DD25E
S1134170F801E558FF4F808309811A81A2D3F80121
S1134180E458FF4F8083809178008931C4F081E046
S113419090E090937A008093790010927800E981FE
S11341A0FA81E956FF4F82E090E091838083CE014B
S11341B0019617DF89819A8183589F4FA0DD8981F9
S11341C09A81FC01E558FF4F208124FDBEDE8981E0
S11341D09A81FC01E558FF4F208125FDC9DE8981C4
S11341E09A81FC01E558FF4F208126FDAEDE8981CE
S11341F09A81FC01E558FF4F208122230CF4B8DE9C
S113420089819A81FC01E458FF4F208123FDC3DE9C
S113421089819A81FC01E458FF4F208124FDCEDE80
S113422089819A81FC01E956FF4F20813181223036
S1134230310509F005C183589F4F97DDE981FA8163
S1134240EA56FF4F8081882349F08DE791E00E9470
S1134250D32CE981FA81EA56FF4F108289819A8131
S1134260FC01E358FF4F2081222374F48E5A9F4FA0
S11342700E94542B89819A8183589F4F3ADD89810A
S11342809A8183589F4F3BDD89819A81FC01E358D1
S1134290FF4F2081203274F08F5A9F4F0E94542B7D
S11342A089819A8183589F4F24DD89819A8183581B
S11342B09F4F25DD89819A818F5A9F4F0E94592BE8
S11342C08A3041F4E981FA81E956FF4F83E090E0B6
S11342D09183808389819A818E5A9F4F0E94592BA2
S11342E08A3041F4E981FA81E956FF4F83E090E096
S11342F09183808389819A81FC01E258FF4F208158
S113430012165CF0FC01EE57FF4F208121952083AB
S1134310FC01EA56FF4F21E02083FC01E258FF4FE5
S113432020812F305CF0FC01EE57FF4F2081219556
S11343302083FC01EA56FF4F21E02083FC01E3586F
S1134340FF4F4081FC01EB57FF4F60814617BCF1E2
S1134350552747FD5095FC01E957FF4F208133272E
S113436027FD3095260F311D67FD3A952417350733
S113437034F1FC01E258FF4F4081FC01EA57FF4F42
S113438060816417E4F4552747FD5095FC01E85714
S1134390FF4F2081332727FD3095260F311D67FD00
S11343A03A95421753075CF4FC01EF57FF4F208105
S11343B021952083FC01EA56FF4F21E02083FC0174
S11343C0E358FF4F4081FC01E357FF4F60814617DC
S11343D0BCF1552747FD5095FC01E157FF4F208163
S11343E0332727FD3095260F311D67FD3A95241795
S11343F0350734F1FC01E258FF4F4081FC01E257DC
S1134400FF4F60816417E4F4552747FD5095FC0184
S1134410E057FF4F2081332727FD3095260F311DAC
S113442067FD3A95421753075CF4FC01EF57FF4FC1
S1134430208121952083FC01EA56FF4F21E020834F
S11344400F900F90DF91CF911F910F910895CF930B
S1134450DF93EC01FC01E956FF4F808191810097C5
S1134460C9F420E040E060E08C2F9D2FE7D6BC012A
S11344708C2F9D2F0BD560E87FE2CE0195DC80ED7B
S113448097E024DCFE01E956FF4F81E090E0918340
S1134490808304C08130910509F045C08091790082
S11344A090917A00892BA9F58091760090917700FC
S11344B068EE73E00E94E62C892B59F520E040E079
S11344C060E08C2F9D2FBAD6BC018C2F9D2FDED49B
S11344D080916A0090916B00892B29F06FE475E05C
S11344E0CE0162DC04C069E779E2CE015DDC81E0E3
S11344F090E020916A0030916B00232B11F080E052
S113450090E090936B0080936A0088EE93E0DEDB8A
S113451088C08091760090917700019690937700FF
S11345208093760020C00297F1F420E040E060E040
S11345308C2F9D2F83D6BC018C2F9D2FA7D4CE0109
S113454090DCBE016B577F4F8C2F9D2FFFD2BE0195
S113455063577F4F8C2F9D2FF9D2BE0163587F4F35
S11345608C2F9D2F0CDCFE01E956FF4F8081918139
S1134570039709F056C0CE018F5A9F4F0E94592BC2
S11345808A3099F420E040E060E08C2F9D2F56D6CD
S1134590BC018C2F9D2F7AD462E773E2CE0104DC38
S11345A08DE791E00E942F2C19C0CE018E5A9F4FA7
S11345B00E94592B8A3091F420E040E060E08C2F77
S11345C09D2F3CD6BC018C2F9D2F60D46BE67DE1E2
S11345D0CE01EADB8DE791E00E942F2C64E677E1BF
S11345E0CE01E2DB80ED97E071DB6DE571E1CE0198
S11345F0DBDB80ED97E06ADB66E57BE0CE01D4DBB4
S113460080ED97E063DB10927A00109279001092AB
S11346107800CE0191DCC956DF4F81E090E09983A8
S11346208883DF91CF9108958BEA91E0EFDC8BEAE8
S113463091E08FDD8BEA91E00ADFF9CFD29AD19A2B
S1134640D098D59AD49AD3980895DA98D99A000034
S11346500000000000000000000000000000000056
S11346600000000000000000000000000000000046
S11346700000000000000000000000000000000036
S11346800000000000000000000000000000000026
S11346900000000000000000000000000000000016
S11346A00000000000000000000000000000000006
S11346B000000000000000000000000000000000F6
S11346C000000000000000000000000000000000E6
S11346D000000000000000000000000000000000D6
S11346E000000000000000000000000000000000C6
S11346F000000000000000000000000000000000B6
S11347000000000000000000000000000000D99834
S113471020E030E080E099B30000000000000000D9
S11347200000000000000000000000000000000085
S11347300000000000000000000000000000000075
S11347400000000000000000000000000000000065
S11347500000000000000000000000000000000055
S11347600000000000000000000000000000000045
S11347700000000000000000000000000000000035
S11347800000000000000000000000000000000025
S11347900000000000000000000000000000000015
S11347A00000000000000000000000000000000005
S11347B000000000000000000000000000000000F5
S11347C000000000000000000000000000000000E5
S11347D00000000000000000DA9A00000000000061
S11347E000000000000000000000000000000000C5
S11347F000000000000000000000000000000000B5
S113480000000000000000000000000000000000A4
S11348100000000000000000000000000000000094
S11348200000000000000000000000000000000084
S11348300000000000000000000000000000000074
S11348400000000000000000000000000000000064
S11348500000000000000000000000000000000054
S11348600000000000000000000000000000000044
S11348700000000000000000000000000000000034
S11348800000000000000000000000000000000024
S113489000000000000000000000DA98492F417079
S11348A050E0BA01022E02C0660F771F0A94E2F7A5
S11348B0862B2F5F3F4F2830310509F02CCF809590
S11348C00895DD98DC9A000000000000000000005C
S11348D000000000000000000000000000000000D4
S11348E000000000000000000000000000000000C4
S11348F000000000000000000000000000000000B4
S113490000000000000000000000000000000000A3
S11349100000000000000000000000000000000093
S11349200000000000000000000000000000000083
S11349300000000000000000000000000000000073
S11349400000000000000000000000000000000063
S11349500000000000000000000000000000000053
S11349600000000000000000000000000000000043
S11349700000000000000000000000000000000033
S1134980000000000000DC9820E030E080E049B343
S11349900000000000000000000000000000000013
S11349A00000000000000000000000000000000003
S11349B000000000000000000000000000000000F3
S11349C000000000000000000000000000000000E3
S11349D000000000000000000000000000000000D3
S11349E000000000000000000000000000000000C3
S11349F000000000000000000000000000000000B3
S1134A0000000000000000000000000000000000A2
S1134A100000000000000000000000000000000092
S1134A200000000000000000000000000000000082
S1134A300000000000000000000000000000000072
S1134A400000000000000000000000000000000062
S1134A50DD9A0000000000000000000000000000DB
S1134A600000000000000000000000000000000042
S1134A700000000000000000000000000000000032
S1134A800000000000000000000000000000000022
S1134A900000000000000000000000000000000012
S1134AA00000000000000000000000000000000002
S1134AB000000000000000000000000000000000F2
S1134AC000000000000000000000000000000000E2
S1134AD000000000000000000000000000000000D2
S1134AE000000000000000000000000000000000C2
S1134AF000000000000000000000000000000000B2
S1134B0000000000000000000000000000000000A1
S1134B100000DD98487050E0022E02C0440F551F7B
S1134B200A94E2F7842B2F5F3F4F2830310509F0B8
S1134B302ECF0895FC01758364830895FC0162837C
S1134B4043830895FC01608341830895EF92FF92AB
S1134B500F931F93FB01E480F5800381112707FD68
S1134B6010952281332727FD30954181552747FD34
S1134B7050956081772767FD70950E94C71B1F9130
S1134B800F91FF90EF900895CF93DF9390E0FC0195
S1134B90E556FA4C4491FC01E554FA4C849188237F
S1134BA091F190E0880F991FFC01EF56FA4C259182
S1134BB03491A22FB32F89579A4CFC01859194917B
S1134BC0C82FD92F61110BC08FB7F8949C914095D1
S1134BD094239C93E8814E2348838FBF14C0623092
S1134BE061F48FB7F8942C91942F909592239C9311
S1134BF0E8814E2B48838FBF06C08FB7F894EC91A1
S1134C004E2B4C938FBFDF91CF91089508958F92CF
S1134C109F92BF92CF92DF92EF92FF920F931F93D6
S1134C20CF93DF93FC0177230CF424C18285938511
S1134C30681779070CF01EC155230CF41BC1848539
S1134C409585481759070CF015C18789823061F0A2
S1134C508330C9F08130F1F4868197810197841BF8
S1134C60950BAB01BC0116C0868197810197DC01CD
S1134C70A61BB70BBD01808591850197EC01C41B70
S1134C80D50BAE0107C0808591850197861B970BD4
S1134C90BA01AC01B32EB694B694B694B694EB2C88
S1134CA0C901880F892F881F990B91950F2EFFE05A
S1134CB0DF2EF02DD822369527950F2EFFE0CF2E2C
S1134CC0F02DC22210A9C12FD0E0A1E0B0E0FA2E4D
S1134CD001C0FF0C1A95EAF7A7A5B0E04A175B07D5
S1134CE00CF06AC081A8912C880C991C8E0E9F1E12
S1134CF006811781409FD001419FB00D509FB00D98
S1134D0011242197AC9FA001AD9F500DBC9F500D65
S1134D101124640F751FE401ABA5BCA5A60FB71F32
S1134D20ED01C05CDF4F48814C7FB0FC05C0ED0154
S1134D30C05CDF4F488305C0ED01C05CDF4F4160BC
S1134D40488380FF06C0ED01C05CDF4F888182602C
S1134D50888320FF08C090968C91909781609096EC
S1134D608C93909707C090968C9190978E7F909695
S1134D708C939097D2E0DF1508F07CC022E08C91F0
S1134D80837E922F9E2111F48C9302C084608C93B5
S1134D90822F8D2119F08C9188608C93822F8C2125
S1134DA019F08C9180618C9386819781A80FB91F2B
S1134DB0220F2F1520F35EC001A910E0000F111F70
S1134DC04F01800E911E4A1B5B0BA681B7814A9F3F
S1134DD080014B9F100D5A9F100D112421970C9F99
S1134DE0A0010D9F500D1C9F500D1124640F751FC1
S1134DF0E401ABA5BCA5A60FB71F4C914C7F4C9307
S1134E00B0FE08C090965C919097526090965C9327
S1134E10909707C090965C9190975D7F90965C9375
S1134E20909780FF02C041604C9320FF03C08C9197
S1134E3082608C93D2E0DF15E8F422E08C918F71CC
S1134E40922F9E2111F48C9302C080628C93822F46
S1134E508D2119F08C9180648C93822F8C2119F010
S1134E608C9180688C9386819781A80FB91F220F3B
S1134E702F1520F3DF91CF911F910F91FF90EF90A9
S1134E80DF90CF90BF909F908F9008959B01215009
S1134E9031092E3F3F4F80F0FC0147A5F0E64F9FBC
S1134EA0A0011124FC0121A930E0220F331FE20FDD
S1134EB0F31F83A594A5CCC70C946B1C4F925F92EF
S1134EC06F927F928F92AF92BF92CF92DF92EF92C6
S1134ED0FF920F931F93CF93DF93CDB7DEB73C01BF
S1134EE0F42E122FDC019F966C93462F50E0440F52
S1134EF0551F60E270E00E94871C87E096E2F30190
S1134F00928F818F86E096E2948F838F86E497E276
S1134F1090A787A347A4F0E64F9E2001112481E0C7
S1134F20881204C09201220F331F01C09201B22ED5
S1134F30D32E822F932FFBD5A82FB92FF301B4A71B
S1134F40A3A7109709F4C9C04B2D5D2D60E070E054
S1134F507FD7F1E08F1208C0D3019B968D919C916D
S1134F609C97480E591E03C0F30143A454A4D301D3
S1134F709E965C924E929D97F301E75BFF4FF08201
S1134F80F301E65BFF4F1083F301E55BFF4F008302
S1134F90F301EA5BFF4FE082F301E95BFF4FC0825C
S1134FA0F301E85BFF4FA082EE2DF0E0E556FA4CEA
S1134FB0E491DF96EC93DF978C2D90E0FC01E554AF
S1134FC0FA4CE491F0E0EE0FFF1FE957FA4C2591FB
S1134FD03491D3962C93D397D4963C93D497FC01D5
S1134FE0E556FA4C8491A05CBF4F8C938A2D90E0D7
S1134FF0FC01E554FA4CE491F0E0EE0FFF1FE95791
S1135000FA4C25913491F30125AB36ABFC01E556FE
S1135010FA4C8491D301AF5BBF4F8C938F2D90E0FA
S1135020FC01E554FA4CE491F0E0EE0FFF1FE95760
S1135030FA4C25913491D301D7962C93D797D896CF
S11350403C93D897FC01E556FA4C8491AE5BBF4F74
S11350508C93812F90E0FC01E554FA4CE491F0E04C
S1135060EE0FFF1FE957FA4C25913491F30121AF5C
S113507032AFFC01E556FA4C8491D301AD5BBF4FCE
S11350808C9310E0F801E554FA4CE491F0E0EE0F53
S1135090FF1FE957FA4C85919491D301DB968C93C9
S11350A0DB97DC969C93DC97F801E556FA4C049167
S11350B0AC5BBF4F0C9384E0F30180ABE25BFF4F2A
S11350C083E08083D3019F968C918150F301E35B4D
S11350D0FF4F8083F30112AA11AADF91CF911F9190
S11350E00F91FF90EF90DF90CF90BF90AF908F9093
S11350F07F906F905F904F9008958F92AF92CF9270
S1135100EF920F938A2CAC2CCE2CE02E022F242F5E
S1135110462F68E0D3DE0F91EF90CF90AF908F9041
S11351200895CF93DF93EC0119AAFC01E15BFF4FD3
S11351308DA59EA591838083D0937C00C0937B0032
S1135140FE01EA5BFF4F61E080811EDD95B38FAD08
S11351508095892385BBFE01E95BFF4F61E0808177
S113516013DDEBA9FCA99081DE01A05CBF4F8C91FB
S1135170809589238083FE01E85BFF4F61E0808195
S113518003DDEDA9FEA99081DE01AF5BBF4F8C91D9
S1135190892B8083FE01E75BFF4F61E08081F4DCB3
S11351A0EFA9F8AD9081DE01AE5BBF4F8C91809585
S11351B089238083FE01E65BFF4F61E08081E4DCAC
S11351C0E9ADFAAD9081DE01AD5BBF4F8C91809566
S11351D089238083FE01E55BFF4F61E08081D4DC9D
S11351E0EBADFCAD9081DE01AC5BBF4F8C91809543
S11351F0892380838FA5893078F0FE01E45BFF4F1B
S113520061E08081C1DCEDADFEAD9081CB5BDF4F11
S113521088818095892380838CEF81BB12BA82E0D8
S11352208FBD89E18EBD84E690E097BD86BD89B7C8
S1135230846089BF7894DF91CF910895862F86701A
S1135240F82FFF0FFF0FE0E0962F9295990F907EB5
S113525080E08E2B9F2B742F777060E0682B792B66
S113526080E2489FA00111245527642B752BA22F9F
S1135270A770B0E0AA0FBB1FAA0FBB1F6A2B7B2B22
S1135280267030E035952795622B732B862F972F48
S113529008954C7F30E2439FC00111242695269542
S11352A02695AC01422B9A01687F962F990F990F8E
S11352B0990F80E0282B392B822F932F0895CF93B9
S11352C0DF93DC01D596ED91FC91D6979081ED01A9
S11352D0CF5BDF4F8881892B8083D396ED91FC913E
S11352E0D4979081ED01C05CDF4F8881892B808346
S11352F09F963C919F97393018F088EC90E002C05B
S113530080E991E0FD01E25BFF4F208188589F4FC7
S113531002C0880F991F2A95E2F7CC9720812F5F4E
S11353202083D0964C91D097241798F1FD01E25B2D
S1135330FF4F1082FD01E35BFF4F20812F5F20832D
S1135340231708F4AAC0FD01E35BFF4F1082D29635
S11353502C91D297213051F4D1963C91D197231BB3
S1135360D1962C93D197D2961C92D297FD01E15BF2
S1135370FF4FD1962C91D197C1E0D0E0C21BD10947
S1135380CC0FDD1FCA0FDB1F2BA53CA53183208367
S113539084C0FD01E25BFF4F2081213009F07DC014
S11353A0FD01E35BFF4F208120FF0CC0D796ED91F8
S11353B0FC91D8973081ED01CE5BDF4F2881232B00
S11353C020830CC0D796ED91FC91D8973081ED01E4
S11353D0CE5BDF4F2881209523232083FD01E35BEF
S11353E0FF4F208121FF0CC0D996ED91FC91DA97F3
S11353F03081ED01CD5BDF4F2881232B20830CC04E
S1135400D996ED91FC91DA973081ED01CD5BDF4FB8
S11354102881209523232083FD01E35BFF4F208116
S113542022FF0CC0DB96ED91FC91DC973081ED01FD
S1135430CC5BDF4F2881232B20830CC0DB96ED91BE
S1135440FC91DC973081ED01CC5BDF4F2881209506
S1135450232320839F962C919F972930F0F0FD0100
S1135460E35BFF4F208123FF0CC0DD96ED91FC919F
S1135470DE973081ED01CB5BDF4F2881232B208326
S11354800CC0DD96ED91FC91DE972081ED01CB5BA4
S1135490DF4F3881309523232083FD01E15BFF4FEB
S11354A00190F081E02D97BD86BD1DBC1CBCD59636
S11354B04D915C91D697EA012881CD018F5B9F4F76
S11354C0EC01888180958223EA018883D3964D91EB
S11354D05C91D497EA012881CD01805C9F4FEC0157
S11354E0888180958223EA01888365B3DF967C9165
S11354F0DF97762BED01C25BDF4F8881882309F4A7
S113550085C0019002BA75BB65BB019002BA75BB38
S113551065BB019002BA75BB65BB019002BA75BB4D
S113552065BB019002BA75BB65BB019002BA75BB3D
S113553065BB019002BA75BB65BB019002BA75BB2D
S113554065BB019002BA75BB65BB019002BA75BB1D
S113555065BB019002BA75BB65BB019002BA75BB0D
S113556065BB019002BA75BB65BB019002BA75BBFD
S113557065BB019002BA75BB65BB019002BA75BBED
S113558065BB019002BA75BB65BB019002BA75BBDD
S113559065BB019002BA75BB65BB019002BA75BBCD
S11355A065BB019002BA75BB65BB019002BA75BBBD
S11355B065BB019002BA75BB65BB019002BA75BBAD
S11355C065BB019002BA75BB65BB019002BA75BB9D
S11355D065BB019002BA75BB65BB019002BA75BB8D
S11355E065BB019002BA75BB65BB019002BA75BB7D
S11355F065BB019002BA75BB65BB019002BA75BB6D
S113560065BBA15BBF4FED93FC9321C0EF01DF01AC
S11356109096E05CFF4F40E259918D91219130E1E9
S1135620839FC00111248073992730E0220F331F18
S1135630220F331F2C703327282B30E4539FC001D3
S11356401124822B82BB75BB65BB415029F7DF91C6
S1135650CF9108951F920F920FB60F9211242F939A
S11356603F934F935F936F937F938F939F93AF93E6
S1135670BF93EF93FF9380917B0090917C001FDE9A
S113568088B7826088BFFF91EF91BF91AF919F91DE
S11356908F917F916F915F914F913F912F910F90D7
S11356A00FBE0F901F901895FC0120812F5F20835F
S11356B00895FC018081089521E0FC012083089570
S11356C03AE006C0232F0000000000002150D9F763
S11356D06150710981099109A8F70895FC01848139
S11356E09581689F9001699F300D789F300D11243A
S11356F0822F932F08953F924F925F926F927F92E1
S11357008F929F92AF92BF92CF92DF92EF92FF92CD
S11357100F931F93CF93DF938C01C72F362EE62F61
S1135720F0E0DC0114968D919C911597892B21F062
S1135730BF01C801D3DFFC01D80111968C918E9F63
S113574090018F9F300D1124369527953695279516
S1135750ABE7B4E18BD14C01969487946F01C818E0
S1135760D908AC2FB0E020EA36E841E050E08AD115
S11357709F0140E050E05FD129013A01F801228104
S113578030E040E050E0C301B20155D17901D801C5
S113579013961C9221153105F9F0C0E0D0E0A12C3C
S11357A0B12C2601612C712C311002C0C09804C0A8
S11357B0F80180818111C09AC501B40181DFC098CC
S11357C0C301B2017DDF2196CE15DF0528F4D8018F
S11357D013968C91882341F3DF91CF911F910F9100
S11357E0FF90EF90DF90CF90BF90AF909F908F90FD
S11357F07F906F905F904F903F900895CF92DF928B
S1135800EF92FF920F931F93CF93DF938C017B0151
S1135810442389F0C42ED12CCC0CDD1CC0E0D0E094
S1135820F701EC0FFD1F60817181C80164DF2296CE
S1135830CC15DD05A9F7DF91CF911F910F91FF9052
S1135840EF90DF90CF900895FC0181E0808382E3A4
S113585081831582148284E18283B89A0895DF9249
S1135860EF92FF920F931F93CF93DF93CDB7DEB7E1
S1135870CC54D1090FB6F894DEBF0FBECDBF24E1DE
S1135880FC012283BE016F5F7F4F2CE4FB01119268
S11358902A95E9F738E9398325E02A83B0E8BB8300
S11358A0EAE0EC8312E71D832E8305E60F8357E0BD
S11358B058870F2EF0E6EF2EF02DE98642E04A8756
S11358C00B872C871D87EE87FFE8FF87288B0F2E19
S11358D0FAEAFF2EF02DF98A5A8B3B8B4C8BFD8B09
S11358E02E8BBF8BE88F398F2A8F3B8F5C8FA1EA79
S11358F0AD8F4E8F3F8F28A3F9A3EAA3ABA32CA3AC
S11359000F2EFAECDF2EF02DDDA2EEA33FA328A785
S1135910B9A7EAA71BA72CA70DA75EA7EFA648ABBC
S113592009AB2AAB1BABECABFDAB2EABFFAA58AF5C
S113593039AF4AAFFBAF2CAFBDAF5EAFFFAF21961F
S11359404FAF219722963FAF229723962FAF2397ED
S11359502496AFAF249725965FAF259754EB2696F0
S11359605FAF269727964FAF27972896AFAF289714
S113597029962FAF29972A963FAF2A9729E12B968C
S11359802FAF2B9746E23ADFC45BDF4F0FB6F89494
S1135990DEBF0FBECDBFDF91CF911F910F91FF905E
S11359A0EF90DF900895CF93DF9300D0CDB7DEB7AB
S11359B028E9298321E02A8341E0BE016F5F7F4FFC
S11359C01DDF0F900F90DF91CF91089597FB072E65
S11359D016F4009406D077FD08D05ED007FC05D0FD
S11359E03EF4909581959F4F0895709561957F4FF2
S11359F00895A1E21A2EAA1BBB1BFD010DC0AA1F0C
S1135A00BB1FEE1FFF1FA217B307E407F50720F023
S1135A10A21BB30BE40BF50B661F771F881F991F9E
S1135A201A9469F760957095809590959B01AC01E7
S1135A30BD01CF010895052E97FB16F4009406D0FE
S1135A4057FD0CD0D6DF07FC09D07EF490958095E5
S1135A50709561957F4F8F4F9F4F08955095409556
S1135A60309521953F4F4F4F5F4F0895A29FB0014E
S1135A70B39FC001A39F01D0B29F700D811D11245B
S1135A80911D0895F3DFA59F900DB49F900DA49FE1
S1135A90800D911D11240895AA1BBB1B51E107C061
S1135AA0AA1FBB1FA617B70710F0A61BB70B881FAA
S1135AB0991F5A95A9F780959095BC01CD01089539
S1135AC02F923F924F925F926F927F928F929F920A
S1135AD0AF92BF92CF92DF92EF92FF920F931F93F8
S1135AE0CF93DF93CDB7DEB7CA1BDB0B0FB6F894A9
S1135AF0DEBF0FBECDBF09942A88398848885F84E9
S1135B006E847D848C849B84AA84B984C884DF8059
S1135B10EE80FD800C811B81AA81B981CE0FD11D3D
S1135B200FB6F894DEBF0FBECDBFED0108950F93FD
S1135B301F93CF93DF938230910510F482E090E0BD
S1135B40E0914602F091470220E030E0C0E0D0E06E
S1135B5023C04081518148175907A8F048175907B5
S1135B6061F482819381209719F09B838A832EC0EC
S1135B70909347028093460229C02115310529F0EC
S1135B804217530710F0A90102C0BE01DF010281D0
S1135B901381EF019A01F8013097D9F621153105E7
S1135BA009F1281B390B2430310590F412968D919C
S1135BB09C9113976115710521F0FB0193838283F6
S1135BC004C09093470280934602FD01329644C07C
S1135BD0FD01E20FF31F81939193225031092D931C
S1135BE03C933AC02091440230914502232B41F466
S1135BF02091620030916300309345022093440267
S1135C0020916000309161002115310541F42DB7D8
S1135C103EB74091640050916500241B350BE09120
S1135C204402F0914502E217F307A0F42E1B3F0B48
S1135C302817390778F0AC014E5F5F4F24173507FA
S1135C4048F04E0F5F1F50934502409344028193E6
S1135C50919302C0E0E0F0E0CF01DF91CF911F917A
S1135C600F910895EF92FF920F931F93CF93DF93B9
S1135C70009709F48FC0DC01129713961C921E92B0
S1135C801297E0904602F0904702E114F10489F47F
S1135C902D913C911197280F391F809144029091C6
S1135CA045028217930789F5B0934502A0934402F5
S1135CB071C0E70120E030E001C0EA01CA17DB0748
S1135CC038F44A815B819E0141155105B1F722C028
S1135CD0BC0162507109FB01D383C283008111812D
S1135CE0AC01400F511F4C175D0761F44881598185
